{
  "_format": "hh-sol-artifact-1",
  "contractName": "MyNFT",
  "sourceName": "contracts/NFT.sol",
  "abi": [
    {
      "inputs": [
        {
          "internalType": "contract Baniya",
          "name": "baniyaToken",
          "type": "address"
        },
        {
          "internalType": "uint256",
          "name": "price",
          "type": "uint256"
        }
      ],
      "stateMutability": "nonpayable",
      "type": "constructor"
    },
    {
      "anonymous": false,
      "inputs": [
        {
          "indexed": true,
          "internalType": "address",
          "name": "owner",
          "type": "address"
        },
        {
          "indexed": true,
          "internalType": "address",
          "name": "approved",
          "type": "address"
        },
        {
          "indexed": true,
          "internalType": "uint256",
          "name": "tokenId",
          "type": "uint256"
        }
      ],
      "name": "Approval",
      "type": "event"
    },
    {
      "anonymous": false,
      "inputs": [
        {
          "indexed": true,
          "internalType": "address",
          "name": "owner",
          "type": "address"
        },
        {
          "indexed": true,
          "internalType": "address",
          "name": "operator",
          "type": "address"
        },
        {
          "indexed": false,
          "internalType": "bool",
          "name": "approved",
          "type": "bool"
        }
      ],
      "name": "ApprovalForAll",
      "type": "event"
    },
    {
      "anonymous": false,
      "inputs": [
        {
          "indexed": true,
          "internalType": "address",
          "name": "previousOwner",
          "type": "address"
        },
        {
          "indexed": true,
          "internalType": "address",
          "name": "newOwner",
          "type": "address"
        }
      ],
      "name": "OwnershipTransferred",
      "type": "event"
    },
    {
      "anonymous": false,
      "inputs": [
        {
          "indexed": true,
          "internalType": "address",
          "name": "from",
          "type": "address"
        },
        {
          "indexed": true,
          "internalType": "address",
          "name": "to",
          "type": "address"
        },
        {
          "indexed": true,
          "internalType": "uint256",
          "name": "tokenId",
          "type": "uint256"
        }
      ],
      "name": "Transfer",
      "type": "event"
    },
    {
      "inputs": [
        {
          "internalType": "address",
          "name": "to",
          "type": "address"
        },
        {
          "internalType": "uint256",
          "name": "tokenId",
          "type": "uint256"
        }
      ],
      "name": "approve",
      "outputs": [],
      "stateMutability": "nonpayable",
      "type": "function"
    },
    {
      "inputs": [
        {
          "internalType": "address",
          "name": "owner",
          "type": "address"
        }
      ],
      "name": "balanceOf",
      "outputs": [
        {
          "internalType": "uint256",
          "name": "",
          "type": "uint256"
        }
      ],
      "stateMutability": "view",
      "type": "function"
    },
    {
      "inputs": [
        {
          "internalType": "uint256",
          "name": "tokenId",
          "type": "uint256"
        }
      ],
      "name": "buyNFT",
      "outputs": [],
      "stateMutability": "nonpayable",
      "type": "function"
    },
    {
      "inputs": [
        {
          "internalType": "uint256",
          "name": "tokenId",
          "type": "uint256"
        }
      ],
      "name": "getApproved",
      "outputs": [
        {
          "internalType": "address",
          "name": "",
          "type": "address"
        }
      ],
      "stateMutability": "view",
      "type": "function"
    },
    {
      "inputs": [],
      "name": "getPrice",
      "outputs": [
        {
          "internalType": "uint256",
          "name": "",
          "type": "uint256"
        }
      ],
      "stateMutability": "view",
      "type": "function"
    },
    {
      "inputs": [
        {
          "internalType": "address",
          "name": "owner",
          "type": "address"
        },
        {
          "internalType": "address",
          "name": "operator",
          "type": "address"
        }
      ],
      "name": "isApprovedForAll",
      "outputs": [
        {
          "internalType": "bool",
          "name": "",
          "type": "bool"
        }
      ],
      "stateMutability": "view",
      "type": "function"
    },
    {
      "inputs": [
        {
          "internalType": "string",
          "name": "tokenURI",
          "type": "string"
        },
        {
          "internalType": "string",
          "name": "image",
          "type": "string"
        }
      ],
      "name": "mintNFT",
      "outputs": [],
      "stateMutability": "nonpayable",
      "type": "function"
    },
    {
      "inputs": [],
      "name": "name",
      "outputs": [
        {
          "internalType": "string",
          "name": "",
          "type": "string"
        }
      ],
      "stateMutability": "view",
      "type": "function"
    },
    {
      "inputs": [],
      "name": "owner",
      "outputs": [
        {
          "internalType": "address",
          "name": "",
          "type": "address"
        }
      ],
      "stateMutability": "view",
      "type": "function"
    },
    {
      "inputs": [
        {
          "internalType": "uint256",
          "name": "tokenId",
          "type": "uint256"
        }
      ],
      "name": "ownerOf",
      "outputs": [
        {
          "internalType": "address",
          "name": "",
          "type": "address"
        }
      ],
      "stateMutability": "view",
      "type": "function"
    },
    {
      "inputs": [],
      "name": "renounceOwnership",
      "outputs": [],
      "stateMutability": "nonpayable",
      "type": "function"
    },
    {
      "inputs": [
        {
          "internalType": "address",
          "name": "from",
          "type": "address"
        },
        {
          "internalType": "address",
          "name": "to",
          "type": "address"
        },
        {
          "internalType": "uint256",
          "name": "tokenId",
          "type": "uint256"
        }
      ],
      "name": "safeTransferFrom",
      "outputs": [],
      "stateMutability": "nonpayable",
      "type": "function"
    },
    {
      "inputs": [
        {
          "internalType": "address",
          "name": "from",
          "type": "address"
        },
        {
          "internalType": "address",
          "name": "to",
          "type": "address"
        },
        {
          "internalType": "uint256",
          "name": "tokenId",
          "type": "uint256"
        },
        {
          "internalType": "bytes",
          "name": "data",
          "type": "bytes"
        }
      ],
      "name": "safeTransferFrom",
      "outputs": [],
      "stateMutability": "nonpayable",
      "type": "function"
    },
    {
      "inputs": [
        {
          "internalType": "address",
          "name": "operator",
          "type": "address"
        },
        {
          "internalType": "bool",
          "name": "approved",
          "type": "bool"
        }
      ],
      "name": "setApprovalForAll",
      "outputs": [],
      "stateMutability": "nonpayable",
      "type": "function"
    },
    {
      "inputs": [
        {
          "internalType": "uint256",
          "name": "price",
          "type": "uint256"
        }
      ],
      "name": "setPrice",
      "outputs": [],
      "stateMutability": "nonpayable",
      "type": "function"
    },
    {
      "inputs": [
        {
          "internalType": "bytes4",
          "name": "interfaceId",
          "type": "bytes4"
        }
      ],
      "name": "supportsInterface",
      "outputs": [
        {
          "internalType": "bool",
          "name": "",
          "type": "bool"
        }
      ],
      "stateMutability": "view",
      "type": "function"
    },
    {
      "inputs": [],
      "name": "symbol",
      "outputs": [
        {
          "internalType": "string",
          "name": "",
          "type": "string"
        }
      ],
      "stateMutability": "view",
      "type": "function"
    },
    {
      "inputs": [
        {
          "internalType": "uint256",
          "name": "tokenId",
          "type": "uint256"
        }
      ],
      "name": "tokenURI",
      "outputs": [
        {
          "internalType": "string",
          "name": "",
          "type": "string"
        }
      ],
      "stateMutability": "view",
      "type": "function"
    },
    {
      "inputs": [
        {
          "internalType": "address",
          "name": "from",
          "type": "address"
        },
        {
          "internalType": "address",
          "name": "to",
          "type": "address"
        },
        {
          "internalType": "uint256",
          "name": "tokenId",
          "type": "uint256"
        }
      ],
      "name": "transferFrom",
      "outputs": [],
      "stateMutability": "nonpayable",
      "type": "function"
    },
    {
      "inputs": [
        {
          "internalType": "address",
          "name": "newOwner",
          "type": "address"
        }
      ],
      "name": "transferOwnership",
      "outputs": [],
      "stateMutability": "nonpayable",
      "type": "function"
    },
    {
      "inputs": [],
      "name": "withdraw",
      "outputs": [],
      "stateMutability": "nonpayable",
      "type": "function"
    }
  ],
  "bytecode": "0x60806040523480156200001157600080fd5b5060405162003d6a38038062003d6a8339818101604052810190620000379190620002f3565b6040518060400160405280600581526020017f4d794e46540000000000000000000000000000000000000000000000000000008152506040518060400160405280600481526020017f4d4e4654000000000000000000000000000000000000000000000000000000008152508160009080519060200190620000bb92919062000215565b508060019080519060200190620000d492919062000215565b505050620000f7620000eb6200014760201b60201c565b6200014f60201b60201c565b81600960006101000a81548173ffffffffffffffffffffffffffffffffffffffff021916908373ffffffffffffffffffffffffffffffffffffffff16021790555080600a8190555050506200041f565b600033905090565b6000600760009054906101000a900473ffffffffffffffffffffffffffffffffffffffff16905081600760006101000a81548173ffffffffffffffffffffffffffffffffffffffff021916908373ffffffffffffffffffffffffffffffffffffffff1602179055508173ffffffffffffffffffffffffffffffffffffffff168173ffffffffffffffffffffffffffffffffffffffff167f8be0079c531659141344cd1fd0a4f28419497f9722a3daafe3b4186f6b6457e060405160405180910390a35050565b828054620002239062000386565b90600052602060002090601f01602090048101928262000247576000855562000293565b82601f106200026257805160ff191683800117855562000293565b8280016001018555821562000293579182015b828111156200029257825182559160200191906001019062000275565b5b509050620002a29190620002a6565b5090565b5b80821115620002c1576000816000905550600101620002a7565b5090565b600081519050620002d681620003eb565b92915050565b600081519050620002ed8162000405565b92915050565b600080604083850312156200030757600080fd5b60006200031785828601620002c5565b92505060206200032a85828601620002dc565b9150509250929050565b600062000341826200035c565b9050919050565b6000620003558262000334565b9050919050565b600073ffffffffffffffffffffffffffffffffffffffff82169050919050565b6000819050919050565b600060028204905060018216806200039f57607f821691505b60208210811415620003b657620003b5620003bc565b5b50919050565b7f4e487b7100000000000000000000000000000000000000000000000000000000600052602260045260246000fd5b620003f68162000348565b81146200040257600080fd5b50565b62000410816200037c565b81146200041c57600080fd5b50565b61393b806200042f6000396000f3fe608060405234801561001057600080fd5b50600436106101375760003560e01c8063715018a6116100b8578063a22cb4651161007c578063a22cb46514610314578063b88d4fde14610330578063c87b56dd1461034c578063e96055441461037c578063e985e9c514610398578063f2fde38b146103c857610137565b8063715018a6146102945780638da5cb5b1461029e57806391b7f5ed146102bc57806395d89b41146102d857806398d5fdca146102f657610137565b80633ccfd60b116100ff5780633ccfd60b146101f257806342842e0e146101fc57806351ed8288146102185780636352211e1461023457806370a082311461026457610137565b806301ffc9a71461013c57806306fdde031461016c578063081812fc1461018a578063095ea7b3146101ba57806323b872dd146101d6575b600080fd5b610156600480360381019061015191906128fd565b6103e4565b6040516101639190612ead565b60405180910390f35b6101746104c6565b6040516101819190612ec8565b60405180910390f35b6101a4600480360381019061019f91906129bb565b610558565b6040516101b19190612de6565b60405180910390f35b6101d460048036038101906101cf9190612898565b61059e565b005b6101f060048036038101906101eb9190612792565b6106b6565b005b6101fa610716565b005b61021660048036038101906102119190612792565b610887565b005b610232600480360381019061022d91906129bb565b6108a7565b005b61024e600480360381019061024991906129bb565b610a57565b60405161025b9190612de6565b60405180910390f35b61027e6004803603810190610279919061272d565b610ade565b60405161028b91906130ea565b60405180910390f35b61029c610b96565b005b6102a6610baa565b6040516102b39190612de6565b60405180910390f35b6102d660048036038101906102d191906129bb565b610bd4565b005b6102e0610be6565b6040516102ed9190612ec8565b60405180910390f35b6102fe610c78565b60405161030b91906130ea565b60405180910390f35b61032e6004803603810190610329919061285c565b610c82565b005b61034a600480360381019061034591906127e1565b610c98565b005b610366600480360381019061036191906129bb565b610cfa565b6040516103739190612ec8565b60405180910390f35b6103966004803603810190610391919061294f565b610e0d565b005b6103b260048036038101906103ad9190612756565b610feb565b6040516103bf9190612ead565b60405180910390f35b6103e260048036038101906103dd919061272d565b61107f565b005b60007f80ac58cd000000000000000000000000000000000000000000000000000000007bffffffffffffffffffffffffffffffffffffffffffffffffffffffff1916827bffffffffffffffffffffffffffffffffffffffffffffffffffffffff191614806104af57507f5b5e139f000000000000000000000000000000000000000000000000000000007bffffffffffffffffffffffffffffffffffffffffffffffffffffffff1916827bffffffffffffffffffffffffffffffffffffffffffffffffffffffff1916145b806104bf57506104be82611103565b5b9050919050565b6060600080546104d590613346565b80601f016020809104026020016040519081016040528092919081815260200182805461050190613346565b801561054e5780601f106105235761010080835404028352916020019161054e565b820191906000526020600020905b81548152906001019060200180831161053157829003601f168201915b5050505050905090565b60006105638261116d565b6004600083815260200190815260200160002060009054906101000a900473ffffffffffffffffffffffffffffffffffffffff169050919050565b60006105a982610a57565b90508073ffffffffffffffffffffffffffffffffffffffff168373ffffffffffffffffffffffffffffffffffffffff16141561061a576040517f08c379a0000000000000000000000000000000000000000000000000000000008152600401610611906130aa565b60405180910390fd5b8073ffffffffffffffffffffffffffffffffffffffff166106396111b8565b73ffffffffffffffffffffffffffffffffffffffff1614806106685750610667816106626111b8565b610feb565b5b6106a7576040517f08c379a000000000000000000000000000000000000000000000000000000000815260040161069e906130ca565b60405180910390fd5b6106b183836111c0565b505050565b6106c76106c16111b8565b82611279565b610706576040517f08c379a00000000000000000000000000000000000000000000000000000000081526004016106fd90612eea565b60405180910390fd5b61071183838361130e565b505050565b61071e611608565b6000600960009054906101000a900473ffffffffffffffffffffffffffffffffffffffff1673ffffffffffffffffffffffffffffffffffffffff166370a08231306040518263ffffffff1660e01b815260040161077b9190612de6565b60206040518083038186803b15801561079357600080fd5b505afa1580156107a7573d6000803e3d6000fd5b505050506040513d601f19601f820116820180604052508101906107cb91906129e4565b9050600960009054906101000a900473ffffffffffffffffffffffffffffffffffffffff1673ffffffffffffffffffffffffffffffffffffffff1663a9059cbb610813610baa565b836040518363ffffffff1660e01b8152600401610831929190612e84565b602060405180830381600087803b15801561084b57600080fd5b505af115801561085f573d6000803e3d6000fd5b505050506040513d601f19601f8201168201806040525081019061088391906128d4565b5050565b6108a283838360405180602001604052806000815250610c98565b505050565b600a54600960009054906101000a900473ffffffffffffffffffffffffffffffffffffffff1673ffffffffffffffffffffffffffffffffffffffff166370a08231336040518263ffffffff1660e01b81526004016109059190612de6565b60206040518083038186803b15801561091d57600080fd5b505afa158015610931573d6000803e3d6000fd5b505050506040513d601f19601f8201168201806040525081019061095591906129e4565b1015610996576040517f08c379a000000000000000000000000000000000000000000000000000000000815260040161098d90612fca565b60405180910390fd5b600960009054906101000a900473ffffffffffffffffffffffffffffffffffffffff1673ffffffffffffffffffffffffffffffffffffffff166323b872dd3330600a546040518463ffffffff1660e01b81526004016109f793929190612e01565b602060405180830381600087803b158015610a1157600080fd5b505af1158015610a25573d6000803e3d6000fd5b505050506040513d601f19601f82011682018060405250810190610a4991906128d4565b50610a543382611686565b50565b600080610a63836116a4565b9050600073ffffffffffffffffffffffffffffffffffffffff168173ffffffffffffffffffffffffffffffffffffffff161415610ad5576040517f08c379a0000000000000000000000000000000000000000000000000000000008152600401610acc9061308a565b60405180910390fd5b80915050919050565b60008073ffffffffffffffffffffffffffffffffffffffff168273ffffffffffffffffffffffffffffffffffffffff161415610b4f576040517f08c379a0000000000000000000000000000000000000000000000000000000008152600401610b469061300a565b60405180910390fd5b600360008373ffffffffffffffffffffffffffffffffffffffff1673ffffffffffffffffffffffffffffffffffffffff168152602001908152602001600020549050919050565b610b9e611608565b610ba860006116e1565b565b6000600760009054906101000a900473ffffffffffffffffffffffffffffffffffffffff16905090565b610bdc611608565b80600a8190555050565b606060018054610bf590613346565b80601f0160208091040260200160405190810160405280929190818152602001828054610c2190613346565b8015610c6e5780601f10610c4357610100808354040283529160200191610c6e565b820191906000526020600020905b815481529060010190602001808311610c5157829003601f168201915b5050505050905090565b6000600a54905090565b610c94610c8d6111b8565b83836117a7565b5050565b610ca9610ca36111b8565b83611279565b610ce8576040517f08c379a0000000000000000000000000000000000000000000000000000000008152600401610cdf90612eea565b60405180910390fd5b610cf484848484611914565b50505050565b6060610d058261116d565b6000600660008481526020019081526020016000208054610d2590613346565b80601f0160208091040260200160405190810160405280929190818152602001828054610d5190613346565b8015610d9e5780601f10610d7357610100808354040283529160200191610d9e565b820191906000526020600020905b815481529060010190602001808311610d8157829003601f168201915b505050505090506000610daf611970565b9050600081511415610dc5578192505050610e08565b600082511115610dfa578082604051602001610de2929190612dc2565b60405160208183030381529060405292505050610e08565b610e0384611987565b925050505b919050565b600a54600960009054906101000a900473ffffffffffffffffffffffffffffffffffffffff1673ffffffffffffffffffffffffffffffffffffffff166370a08231336040518263ffffffff1660e01b8152600401610e6b9190612de6565b60206040518083038186803b158015610e8357600080fd5b505afa158015610e97573d6000803e3d6000fd5b505050506040513d601f19601f82011682018060405250810190610ebb91906129e4565b1015610efc576040517f08c379a0000000000000000000000000000000000000000000000000000000008152600401610ef390612fca565b60405180910390fd5b600960009054906101000a900473ffffffffffffffffffffffffffffffffffffffff1673ffffffffffffffffffffffffffffffffffffffff166323b872dd3330600a546040518463ffffffff1660e01b8152600401610f5d93929190612e01565b602060405180830381600087803b158015610f7757600080fd5b505af1158015610f8b573d6000803e3d6000fd5b505050506040513d601f19601f82011682018060405250810190610faf91906128d4565b50610fba60086119ef565b6000610fc66008611a05565b9050610fd23382611686565b610fdc8184611a13565b610fe68183611a87565b505050565b6000600560008473ffffffffffffffffffffffffffffffffffffffff1673ffffffffffffffffffffffffffffffffffffffff16815260200190815260200160002060008373ffffffffffffffffffffffffffffffffffffffff1673ffffffffffffffffffffffffffffffffffffffff16815260200190815260200160002060009054906101000a900460ff16905092915050565b611087611608565b600073ffffffffffffffffffffffffffffffffffffffff168173ffffffffffffffffffffffffffffffffffffffff1614156110f7576040517f08c379a00000000000000000000000000000000000000000000000000000000081526004016110ee90612f2a565b60405180910390fd5b611100816116e1565b50565b60007f01ffc9a7000000000000000000000000000000000000000000000000000000007bffffffffffffffffffffffffffffffffffffffffffffffffffffffff1916827bffffffffffffffffffffffffffffffffffffffffffffffffffffffff1916149050919050565b61117681611c2c565b6111b5576040517f08c379a00000000000000000000000000000000000000000000000000000000081526004016111ac9061308a565b60405180910390fd5b50565b600033905090565b816004600083815260200190815260200160002060006101000a81548173ffffffffffffffffffffffffffffffffffffffff021916908373ffffffffffffffffffffffffffffffffffffffff160217905550808273ffffffffffffffffffffffffffffffffffffffff1661123383610a57565b73ffffffffffffffffffffffffffffffffffffffff167f8c5be1e5ebec7d5bd14f71427d1e84f3dd0314c0f7b2291e5b200ac8c7c3b92560405160405180910390a45050565b60008061128583610a57565b90508073ffffffffffffffffffffffffffffffffffffffff168473ffffffffffffffffffffffffffffffffffffffff1614806112c757506112c68185610feb565b5b8061130557508373ffffffffffffffffffffffffffffffffffffffff166112ed84610558565b73ffffffffffffffffffffffffffffffffffffffff16145b91505092915050565b8273ffffffffffffffffffffffffffffffffffffffff1661132e82610a57565b73ffffffffffffffffffffffffffffffffffffffff1614611384576040517f08c379a000000000000000000000000000000000000000000000000000000000815260040161137b90612f4a565b60405180910390fd5b600073ffffffffffffffffffffffffffffffffffffffff168273ffffffffffffffffffffffffffffffffffffffff1614156113f4576040517f08c379a00000000000000000000000000000000000000000000000000000000081526004016113eb90612f8a565b60405180910390fd5b6114018383836001611c6d565b8273ffffffffffffffffffffffffffffffffffffffff1661142182610a57565b73ffffffffffffffffffffffffffffffffffffffff1614611477576040517f08c379a000000000000000000000000000000000000000000000000000000000815260040161146e90612f4a565b60405180910390fd5b6004600082815260200190815260200160002060006101000a81549073ffffffffffffffffffffffffffffffffffffffff02191690556001600360008573ffffffffffffffffffffffffffffffffffffffff1673ffffffffffffffffffffffffffffffffffffffff168152602001908152602001600020600082825403925050819055506001600360008473ffffffffffffffffffffffffffffffffffffffff1673ffffffffffffffffffffffffffffffffffffffff16815260200190815260200160002060008282540192505081905550816002600083815260200190815260200160002060006101000a81548173ffffffffffffffffffffffffffffffffffffffff021916908373ffffffffffffffffffffffffffffffffffffffff160217905550808273ffffffffffffffffffffffffffffffffffffffff168473ffffffffffffffffffffffffffffffffffffffff167fddf252ad1be2c89b69c2b068fc378daa952ba7f163c4a11628f55a4df523b3ef60405160405180910390a46116038383836001611d93565b505050565b6116106111b8565b73ffffffffffffffffffffffffffffffffffffffff1661162e610baa565b73ffffffffffffffffffffffffffffffffffffffff1614611684576040517f08c379a000000000000000000000000000000000000000000000000000000000815260040161167b9061306a565b60405180910390fd5b565b6116a0828260405180602001604052806000815250611d99565b5050565b60006002600083815260200190815260200160002060009054906101000a900473ffffffffffffffffffffffffffffffffffffffff169050919050565b6000600760009054906101000a900473ffffffffffffffffffffffffffffffffffffffff16905081600760006101000a81548173ffffffffffffffffffffffffffffffffffffffff021916908373ffffffffffffffffffffffffffffffffffffffff1602179055508173ffffffffffffffffffffffffffffffffffffffff168173ffffffffffffffffffffffffffffffffffffffff167f8be0079c531659141344cd1fd0a4f28419497f9722a3daafe3b4186f6b6457e060405160405180910390a35050565b8173ffffffffffffffffffffffffffffffffffffffff168373ffffffffffffffffffffffffffffffffffffffff161415611816576040517f08c379a000000000000000000000000000000000000000000000000000000000815260040161180d90612faa565b60405180910390fd5b80600560008573ffffffffffffffffffffffffffffffffffffffff1673ffffffffffffffffffffffffffffffffffffffff16815260200190815260200160002060008473ffffffffffffffffffffffffffffffffffffffff1673ffffffffffffffffffffffffffffffffffffffff16815260200190815260200160002060006101000a81548160ff0219169083151502179055508173ffffffffffffffffffffffffffffffffffffffff168373ffffffffffffffffffffffffffffffffffffffff167f17307eab39ab6107e8899845ad3d59bd9653f200f220920489ca2b5937696c31836040516119079190612ead565b60405180910390a3505050565b61191f84848461130e565b61192b84848484611df4565b61196a576040517f08c379a000000000000000000000000000000000000000000000000000000000815260040161196190612f0a565b60405180910390fd5b50505050565b606060405180602001604052806000815250905090565b60606119928261116d565b600061199c611970565b905060008151116119bc57604051806020016040528060008152506119e7565b806119c684611f8b565b6040516020016119d7929190612dc2565b6040516020818303038152906040525b915050919050565b6001816000016000828254019250508190555050565b600081600001549050919050565b611a1c82611c2c565b611a5b576040517f08c379a0000000000000000000000000000000000000000000000000000000008152600401611a529061302a565b60405180910390fd5b80600660008481526020019081526020016000209080519060200190611a82929190612527565b505050565b6000611a9283610cfa565b9050600060018251611aa49190613230565b90507f7d00000000000000000000000000000000000000000000000000000000000000828281518110611b00577f4e487b7100000000000000000000000000000000000000000000000000000000600052603260045260246000fd5b602001015160f81c60f81b7effffffffffffffffffffffffffffffffffffffffffffffffffffffffffffff191614611b6d576040517f08c379a0000000000000000000000000000000000000000000000000000000008152600401611b6490612fea565b60405180910390fd5b600083905060005b8151811015611bf85783828281518110611bb8577f4e487b7100000000000000000000000000000000000000000000000000000000600052603260045260246000fd5b602001015160f81c60f81b604051602001611bd4929190612d78565b60405160208183030381529060405293508080611bf0906133a9565b915050611b75565b5082604051602001611c0a9190612da0565b6040516020818303038152906040529250611c258584611a13565b5050505050565b60008073ffffffffffffffffffffffffffffffffffffffff16611c4e836116a4565b73ffffffffffffffffffffffffffffffffffffffff1614159050919050565b6001811115611d8d57600073ffffffffffffffffffffffffffffffffffffffff168473ffffffffffffffffffffffffffffffffffffffff1614611d015780600360008673ffffffffffffffffffffffffffffffffffffffff1673ffffffffffffffffffffffffffffffffffffffff1681526020019081526020016000206000828254611cf99190613230565b925050819055505b600073ffffffffffffffffffffffffffffffffffffffff168373ffffffffffffffffffffffffffffffffffffffff1614611d8c5780600360008573ffffffffffffffffffffffffffffffffffffffff1673ffffffffffffffffffffffffffffffffffffffff1681526020019081526020016000206000828254611d8491906131da565b925050819055505b5b50505050565b50505050565b611da383836120af565b611db06000848484611df4565b611def576040517f08c379a0000000000000000000000000000000000000000000000000000000008152600401611de690612f0a565b60405180910390fd5b505050565b6000611e158473ffffffffffffffffffffffffffffffffffffffff166122cd565b15611f7e578373ffffffffffffffffffffffffffffffffffffffff1663150b7a02611e3e6111b8565b8786866040518563ffffffff1660e01b8152600401611e609493929190612e38565b602060405180830381600087803b158015611e7a57600080fd5b505af1925050508015611eab57506040513d601f19601f82011682018060405250810190611ea89190612926565b60015b611f2e573d8060008114611edb576040519150601f19603f3d011682016040523d82523d6000602084013e611ee0565b606091505b50600081511415611f26576040517f08c379a0000000000000000000000000000000000000000000000000000000008152600401611f1d90612f0a565b60405180910390fd5b805181602001fd5b63150b7a0260e01b7bffffffffffffffffffffffffffffffffffffffffffffffffffffffff1916817bffffffffffffffffffffffffffffffffffffffffffffffffffffffff191614915050611f83565b600190505b949350505050565b606060006001611f9a846122f0565b01905060008167ffffffffffffffff811115611fdf577f4e487b7100000000000000000000000000000000000000000000000000000000600052604160045260246000fd5b6040519080825280601f01601f1916602001820160405280156120115781602001600182028036833780820191505090505b509050600082602001820190505b6001156120a4578080600190039150507f3031323334353637383961626364656600000000000000000000000000000000600a86061a8153600a858161208e577f4e487b7100000000000000000000000000000000000000000000000000000000600052601260045260246000fd5b049450600085141561209f576120a4565b61201f565b819350505050919050565b600073ffffffffffffffffffffffffffffffffffffffff168273ffffffffffffffffffffffffffffffffffffffff16141561211f576040517f08c379a00000000000000000000000000000000000000000000000000000000081526004016121169061304a565b60405180910390fd5b61212881611c2c565b15612168576040517f08c379a000000000000000000000000000000000000000000000000000000000815260040161215f90612f6a565b60405180910390fd5b612176600083836001611c6d565b61217f81611c2c565b156121bf576040517f08c379a00000000000000000000000000000000000000000000000000000000081526004016121b690612f6a565b60405180910390fd5b6001600360008473ffffffffffffffffffffffffffffffffffffffff1673ffffffffffffffffffffffffffffffffffffffff16815260200190815260200160002060008282540192505081905550816002600083815260200190815260200160002060006101000a81548173ffffffffffffffffffffffffffffffffffffffff021916908373ffffffffffffffffffffffffffffffffffffffff160217905550808273ffffffffffffffffffffffffffffffffffffffff16600073ffffffffffffffffffffffffffffffffffffffff167fddf252ad1be2c89b69c2b068fc378daa952ba7f163c4a11628f55a4df523b3ef60405160405180910390a46122c9600083836001611d93565b5050565b6000808273ffffffffffffffffffffffffffffffffffffffff163b119050919050565b600080600090507a184f03e93ff9f4daa797ed6e38ed64bf6a1f0100000000000000008310612374577a184f03e93ff9f4daa797ed6e38ed64bf6a1f010000000000000000838161236a577f4e487b7100000000000000000000000000000000000000000000000000000000600052601260045260246000fd5b0492506040810190505b6d04ee2d6d415b85acef810000000083106123d7576d04ee2d6d415b85acef810000000083816123cd577f4e487b7100000000000000000000000000000000000000000000000000000000600052601260045260246000fd5b0492506020810190505b662386f26fc10000831061242c57662386f26fc100008381612422577f4e487b7100000000000000000000000000000000000000000000000000000000600052601260045260246000fd5b0492506010810190505b6305f5e100831061247b576305f5e1008381612471577f4e487b7100000000000000000000000000000000000000000000000000000000600052601260045260246000fd5b0492506008810190505b61271083106124c65761271083816124bc577f4e487b7100000000000000000000000000000000000000000000000000000000600052601260045260246000fd5b0492506004810190505b6064831061250f5760648381612505577f4e487b7100000000000000000000000000000000000000000000000000000000600052601260045260246000fd5b0492506002810190505b600a831061251e576001810190505b80915050919050565b82805461253390613346565b90600052602060002090601f016020900481019282612555576000855561259c565b82601f1061256e57805160ff191683800117855561259c565b8280016001018555821561259c579182015b8281111561259b578251825591602001919060010190612580565b5b5090506125a991906125ad565b5090565b5b808211156125c65760008160009055506001016125ae565b5090565b60006125dd6125d88461312a565b613105565b9050828152602081018484840111156125f557600080fd5b612600848285613304565b509392505050565b600061261b6126168461315b565b613105565b90508281526020810184848401111561263357600080fd5b61263e848285613304565b509392505050565b600081359050612655816138a9565b92915050565b60008135905061266a816138c0565b92915050565b60008151905061267f816138c0565b92915050565b600081359050612694816138d7565b92915050565b6000815190506126a9816138d7565b92915050565b600082601f8301126126c057600080fd5b81356126d08482602086016125ca565b91505092915050565b600082601f8301126126ea57600080fd5b81356126fa848260208601612608565b91505092915050565b600081359050612712816138ee565b92915050565b600081519050612727816138ee565b92915050565b60006020828403121561273f57600080fd5b600061274d84828501612646565b91505092915050565b6000806040838503121561276957600080fd5b600061277785828601612646565b925050602061278885828601612646565b9150509250929050565b6000806000606084860312156127a757600080fd5b60006127b586828701612646565b93505060206127c686828701612646565b92505060406127d786828701612703565b9150509250925092565b600080600080608085870312156127f757600080fd5b600061280587828801612646565b945050602061281687828801612646565b935050604061282787828801612703565b925050606085013567ffffffffffffffff81111561284457600080fd5b612850878288016126af565b91505092959194509250565b6000806040838503121561286f57600080fd5b600061287d85828601612646565b925050602061288e8582860161265b565b9150509250929050565b600080604083850312156128ab57600080fd5b60006128b985828601612646565b92505060206128ca85828601612703565b9150509250929050565b6000602082840312156128e657600080fd5b60006128f484828501612670565b91505092915050565b60006020828403121561290f57600080fd5b600061291d84828501612685565b91505092915050565b60006020828403121561293857600080fd5b60006129468482850161269a565b91505092915050565b6000806040838503121561296257600080fd5b600083013567ffffffffffffffff81111561297c57600080fd5b612988858286016126d9565b925050602083013567ffffffffffffffff8111156129a557600080fd5b6129b1858286016126d9565b9150509250929050565b6000602082840312156129cd57600080fd5b60006129db84828501612703565b91505092915050565b6000602082840312156129f657600080fd5b6000612a0484828501612718565b91505092915050565b612a1681613264565b82525050565b612a2581613276565b82525050565b612a3c612a3782613282565b6133f2565b82525050565b6000612a4d8261318c565b612a5781856131a2565b9350612a67818560208601613313565b612a7081613489565b840191505092915050565b6000612a868261318c565b612a9081856131b3565b9350612aa0818560208601613313565b80840191505092915050565b6000612ab782613197565b612ac181856131be565b9350612ad1818560208601613313565b612ada81613489565b840191505092915050565b6000612af082613197565b612afa81856131cf565b9350612b0a818560208601613313565b80840191505092915050565b6000612b23602d836131be565b9150612b2e8261349a565b604082019050919050565b6000612b466032836131be565b9150612b51826134e9565b604082019050919050565b6000612b696026836131be565b9150612b7482613538565b604082019050919050565b6000612b8c6025836131be565b9150612b9782613587565b604082019050919050565b6000612baf601c836131be565b9150612bba826135d6565b602082019050919050565b6000612bd26024836131be565b9150612bdd826135ff565b604082019050919050565b6000612bf56019836131be565b9150612c008261364e565b602082019050919050565b6000612c186014836131be565b9150612c2382613677565b602082019050919050565b6000612c3b6016836131be565b9150612c46826136a0565b602082019050919050565b6000612c5e6029836131be565b9150612c69826136c9565b604082019050919050565b6000612c81602e836131be565b9150612c8c82613718565b604082019050919050565b6000612ca46020836131be565b9150612caf82613767565b602082019050919050565b6000612cc76001836131cf565b9150612cd282613790565b600182019050919050565b6000612cea6020836131be565b9150612cf5826137b9565b602082019050919050565b6000612d0d6018836131be565b9150612d18826137e2565b602082019050919050565b6000612d306021836131be565b9150612d3b8261380b565b604082019050919050565b6000612d53603d836131be565b9150612d5e8261385a565b604082019050919050565b612d72816132fa565b82525050565b6000612d848285612a7b565b9150612d908284612a2b565b6001820191508190509392505050565b6000612dac8284612a7b565b9150612db782612cba565b915081905092915050565b6000612dce8285612ae5565b9150612dda8284612ae5565b91508190509392505050565b6000602082019050612dfb6000830184612a0d565b92915050565b6000606082019050612e166000830186612a0d565b612e236020830185612a0d565b612e306040830184612d69565b949350505050565b6000608082019050612e4d6000830187612a0d565b612e5a6020830186612a0d565b612e676040830185612d69565b8181036060830152612e798184612a42565b905095945050505050565b6000604082019050612e996000830185612a0d565b612ea66020830184612d69565b9392505050565b6000602082019050612ec26000830184612a1c565b92915050565b60006020820190508181036000830152612ee28184612aac565b905092915050565b60006020820190508181036000830152612f0381612b16565b9050919050565b60006020820190508181036000830152612f2381612b39565b9050919050565b60006020820190508181036000830152612f4381612b5c565b9050919050565b60006020820190508181036000830152612f6381612b7f565b9050919050565b60006020820190508181036000830152612f8381612ba2565b9050919050565b60006020820190508181036000830152612fa381612bc5565b9050919050565b60006020820190508181036000830152612fc381612be8565b9050919050565b60006020820190508181036000830152612fe381612c0b565b9050919050565b6000602082019050818103600083015261300381612c2e565b9050919050565b6000602082019050818103600083015261302381612c51565b9050919050565b6000602082019050818103600083015261304381612c74565b9050919050565b6000602082019050818103600083015261306381612c97565b9050919050565b6000602082019050818103600083015261308381612cdd565b9050919050565b600060208201905081810360008301526130a381612d00565b9050919050565b600060208201905081810360008301526130c381612d23565b9050919050565b600060208201905081810360008301526130e381612d46565b9050919050565b60006020820190506130ff6000830184612d69565b92915050565b600061310f613120565b905061311b8282613378565b919050565b6000604051905090565b600067ffffffffffffffff8211156131455761314461345a565b5b61314e82613489565b9050602081019050919050565b600067ffffffffffffffff8211156131765761317561345a565b5b61317f82613489565b9050602081019050919050565b600081519050919050565b600081519050919050565b600082825260208201905092915050565b600081905092915050565b600082825260208201905092915050565b600081905092915050565b60006131e5826132fa565b91506131f0836132fa565b9250827fffffffffffffffffffffffffffffffffffffffffffffffffffffffffffffffff03821115613225576132246133fc565b5b828201905092915050565b600061323b826132fa565b9150613246836132fa565b925082821015613259576132586133fc565b5b828203905092915050565b600061326f826132da565b9050919050565b60008115159050919050565b60007fff0000000000000000000000000000000000000000000000000000000000000082169050919050565b60007fffffffff0000000000000000000000000000000000000000000000000000000082169050919050565b600073ffffffffffffffffffffffffffffffffffffffff82169050919050565b6000819050919050565b82818337600083830152505050565b60005b83811015613331578082015181840152602081019050613316565b83811115613340576000848401525b50505050565b6000600282049050600182168061335e57607f821691505b602082108114156133725761337161342b565b5b50919050565b61338182613489565b810181811067ffffffffffffffff821117156133a05761339f61345a565b5b80604052505050565b60006133b4826132fa565b91507fffffffffffffffffffffffffffffffffffffffffffffffffffffffffffffffff8214156133e7576133e66133fc565b5b600182019050919050565b6000819050919050565b7f4e487b7100000000000000000000000000000000000000000000000000000000600052601160045260246000fd5b7f4e487b7100000000000000000000000000000000000000000000000000000000600052602260045260246000fd5b7f4e487b7100000000000000000000000000000000000000000000000000000000600052604160045260246000fd5b6000601f19601f8301169050919050565b7f4552433732313a2063616c6c6572206973206e6f7420746f6b656e206f776e6560008201527f72206f7220617070726f76656400000000000000000000000000000000000000602082015250565b7f4552433732313a207472616e7366657220746f206e6f6e20455243373231526560008201527f63656976657220696d706c656d656e7465720000000000000000000000000000602082015250565b7f4f776e61626c653a206e6577206f776e657220697320746865207a65726f206160008201527f6464726573730000000000000000000000000000000000000000000000000000602082015250565b7f4552433732313a207472616e736665722066726f6d20696e636f72726563742060008201527f6f776e6572000000000000000000000000000000000000000000000000000000602082015250565b7f4552433732313a20746f6b656e20616c7265616479206d696e74656400000000600082015250565b7f4552433732313a207472616e7366657220746f20746865207a65726f2061646460008201527f7265737300000000000000000000000000000000000000000000000000000000602082015250565b7f4552433732313a20617070726f766520746f2063616c6c657200000000000000600082015250565b7f496e73756666696369656e742062616c616e6365000000000000000000000000600082015250565b7f546f6b656e206d6574616461746120696e76616c696400000000000000000000600082015250565b7f4552433732313a2061646472657373207a65726f206973206e6f74206120766160008201527f6c6964206f776e65720000000000000000000000000000000000000000000000602082015250565b7f45524337323155524953746f726167653a2055524920736574206f66206e6f6e60008201527f6578697374656e7420746f6b656e000000000000000000000000000000000000602082015250565b7f4552433732313a206d696e7420746f20746865207a65726f2061646472657373600082015250565b7f7d00000000000000000000000000000000000000000000000000000000000000600082015250565b7f4f776e61626c653a2063616c6c6572206973206e6f7420746865206f776e6572600082015250565b7f4552433732313a20696e76616c696420746f6b656e2049440000000000000000600082015250565b7f4552433732313a20617070726f76616c20746f2063757272656e74206f776e6560008201527f7200000000000000000000000000000000000000000000000000000000000000602082015250565b7f4552433732313a20617070726f76652063616c6c6572206973206e6f7420746f60008201527f6b656e206f776e6572206f7220617070726f76656420666f7220616c6c000000602082015250565b6138b281613264565b81146138bd57600080fd5b50565b6138c981613276565b81146138d457600080fd5b50565b6138e0816132ae565b81146138eb57600080fd5b50565b6138f7816132fa565b811461390257600080fd5b5056fea264697066735822122099e567201bedc1d90579444d01fa2a5bec00acec16c43d6810a9c91e74db233764736f6c63430008010033",
  "linkReferences": {},
  "deployedLinkReferences": {}
}