{"contracts/Baniya.sol":{"Baniya":{"abi":[{"inputs":[{"internalType":"string","name":"iconData","type":"string"}],"stateMutability":"nonpayable","type":"constructor"},{"anonymous":false,"inputs":[{"indexed":true,"internalType":"address","name":"owner","type":"address"},{"indexed":true,"internalType":"address","name":"spender","type":"address"},{"indexed":false,"internalType":"uint256","name":"value","type":"uint256"}],"name":"Approval","type":"event"},{"anonymous":false,"inputs":[{"indexed":true,"internalType":"address","name":"from","type":"address"},{"indexed":true,"internalType":"address","name":"to","type":"address"},{"indexed":false,"internalType":"uint256","name":"value","type":"uint256"}],"name":"Transfer","type":"event"},{"inputs":[{"internalType":"address","name":"owner","type":"address"},{"internalType":"address","name":"spender","type":"address"}],"name":"allowance","outputs":[{"internalType":"uint256","name":"","type":"uint256"}],"stateMutability":"view","type":"function"},{"inputs":[{"internalType":"address","name":"spender","type":"address"},{"internalType":"uint256","name":"amount","type":"uint256"}],"name":"approve","outputs":[{"internalType":"bool","name":"","type":"bool"}],"stateMutability":"nonpayable","type":"function"},{"inputs":[{"internalType":"address","name":"account","type":"address"}],"name":"balanceOf","outputs":[{"internalType":"uint256","name":"","type":"uint256"}],"stateMutability":"view","type":"function"},{"inputs":[],"name":"decimals","outputs":[{"internalType":"uint8","name":"","type":"uint8"}],"stateMutability":"view","type":"function"},{"inputs":[{"internalType":"address","name":"spender","type":"address"},{"internalType":"uint256","name":"subtractedValue","type":"uint256"}],"name":"decreaseAllowance","outputs":[{"internalType":"bool","name":"","type":"bool"}],"stateMutability":"nonpayable","type":"function"},{"inputs":[],"name":"icon","outputs":[{"internalType":"bytes32","name":"","type":"bytes32"}],"stateMutability":"view","type":"function"},{"inputs":[{"internalType":"address","name":"spender","type":"address"},{"internalType":"uint256","name":"addedValue","type":"uint256"}],"name":"increaseAllowance","outputs":[{"internalType":"bool","name":"","type":"bool"}],"stateMutability":"nonpayable","type":"function"},{"inputs":[],"name":"name","outputs":[{"internalType":"string","name":"","type":"string"}],"stateMutability":"view","type":"function"},{"inputs":[],"name":"symbol","outputs":[{"internalType":"string","name":"","type":"string"}],"stateMutability":"view","type":"function"},{"inputs":[],"name":"totalSupply","outputs":[{"internalType":"uint256","name":"","type":"uint256"}],"stateMutability":"view","type":"function"},{"inputs":[{"internalType":"address","name":"to","type":"address"},{"internalType":"uint256","name":"amount","type":"uint256"}],"name":"transfer","outputs":[{"internalType":"bool","name":"","type":"bool"}],"stateMutability":"nonpayable","type":"function"},{"inputs":[{"internalType":"address","name":"from","type":"address"},{"internalType":"address","name":"to","type":"address"},{"internalType":"uint256","name":"amount","type":"uint256"}],"name":"transferFrom","outputs":[{"internalType":"bool","name":"","type":"bool"}],"stateMutability":"nonpayable","type":"function"}],"evm":{"bytecode":{"linkReferences":{},"object":"60806040523480156200001157600080fd5b5060405162002b1c38038062002b1c8339818101604052810190620000379190620003f5565b6040518060400160405280600681526020017f42414e49594100000000000000000000000000000000000000000000000000008152506040518060400160405280600381526020017f42414e00000000000000000000000000000000000000000000000000000000008152508160039080519060200190620000bb929190620002d3565b508060049080519060200190620000d4929190620002d3565b5050506200011633620000ec6200015260201b60201c565b600a620000fa9190620005fc565b620f42406200010a919062000739565b6200015b60201b60201c565b60405180610f400160405280610f1c815260200162001c00610f1c9139600590805190602001906200014a929190620002d3565b5050620008b7565b60006012905090565b600073ffffffffffffffffffffffffffffffffffffffff168273ffffffffffffffffffffffffffffffffffffffff161415620001ce576040517f08c379a0000000000000000000000000000000000000000000000000000000008152600401620001c5906200048d565b60405180910390fd5b620001e260008383620002c960201b60201c565b8060026000828254620001f6919062000544565b92505081905550806000808473ffffffffffffffffffffffffffffffffffffffff1673ffffffffffffffffffffffffffffffffffffffff168152602001908152602001600020600082825401925050819055508173ffffffffffffffffffffffffffffffffffffffff16600073ffffffffffffffffffffffffffffffffffffffff167fddf252ad1be2c89b69c2b068fc378daa952ba7f163c4a11628f55a4df523b3ef83604051620002a99190620004af565b60405180910390a3620002c560008383620002ce60201b60201c565b5050565b505050565b505050565b828054620002e190620007e7565b90600052602060002090601f01602090048101928262000305576000855562000351565b82601f106200032057805160ff191683800117855562000351565b8280016001018555821562000351579182015b828111156200035057825182559160200191906001019062000333565b5b50905062000360919062000364565b5090565b5b808211156200037f57600081600090555060010162000365565b5090565b60006200039a620003948462000500565b620004cc565b905082815260208101848484011115620003b357600080fd5b620003c0848285620007b1565b509392505050565b600082601f830112620003da57600080fd5b8151620003ec84826020860162000383565b91505092915050565b6000602082840312156200040857600080fd5b600082015167ffffffffffffffff8111156200042357600080fd5b6200043184828501620003c8565b91505092915050565b600062000449601f8362000533565b91507f45524332303a206d696e7420746f20746865207a65726f2061646472657373006000830152602082019050919050565b62000487816200079a565b82525050565b60006020820190508181036000830152620004a8816200043a565b9050919050565b6000602082019050620004c660008301846200047c565b92915050565b6000604051905081810181811067ffffffffffffffff82111715620004f657620004f56200087b565b5b8060405250919050565b600067ffffffffffffffff8211156200051e576200051d6200087b565b5b601f19601f8301169050602081019050919050565b600082825260208201905092915050565b600062000551826200079a565b91506200055e836200079a565b9250827fffffffffffffffffffffffffffffffffffffffffffffffffffffffffffffffff038211156200059657620005956200081d565b5b828201905092915050565b6000808291508390505b6001851115620005f357808604811115620005cb57620005ca6200081d565b5b6001851615620005db5780820291505b8081029050620005eb85620008aa565b9450620005ab565b94509492505050565b600062000609826200079a565b91506200061683620007a4565b9250620006457fffffffffffffffffffffffffffffffffffffffffffffffffffffffffffffffff84846200064d565b905092915050565b6000826200065f576001905062000732565b816200066f576000905062000732565b81600181146200068857600281146200069357620006c9565b600191505062000732565b60ff841115620006a857620006a76200081d565b5b8360020a915084821115620006c257620006c16200081d565b5b5062000732565b5060208310610133831016604e8410600b8410161715620007035782820a905083811115620006fd57620006fc6200081d565b5b62000732565b620007128484846001620005a1565b925090508184048111156200072c576200072b6200081d565b5b81810290505b9392505050565b600062000746826200079a565b915062000753836200079a565b9250817fffffffffffffffffffffffffffffffffffffffffffffffffffffffffffffffff04831182151516156200078f576200078e6200081d565b5b828202905092915050565b6000819050919050565b600060ff82169050919050565b60005b83811015620007d1578082015181840152602081019050620007b4565b83811115620007e1576000848401525b50505050565b600060028204905060018216806200080057607f821691505b602082108114156200081757620008166200084c565b5b50919050565b7f4e487b7100000000000000000000000000000000000000000000000000000000600052601160045260246000fd5b7f4e487b7100000000000000000000000000000000000000000000000000000000600052602260045260246000fd5b7f4e487b7100000000000000000000000000000000000000000000000000000000600052604160045260246000fd5b60008160011c9050919050565b61133980620008c76000396000f3fe608060405234801561001057600080fd5b50600436106100b45760003560e01c806370a082311161007157806370a08231146101a357806395d89b41146101d3578063a457c2d7146101f1578063a9059cbb14610221578063c557b98514610251578063dd62ed3e1461026f576100b4565b806306fdde03146100b9578063095ea7b3146100d757806318160ddd1461010757806323b872dd14610125578063313ce567146101555780633950935114610173575b600080fd5b6100c161029f565b6040516100ce9190610fd8565b60405180910390f35b6100f160048036038101906100ec9190610bb7565b610331565b6040516100fe9190610fa2565b60405180910390f35b61010f610354565b60405161011c91906110da565b60405180910390f35b61013f600480360381019061013a9190610b68565b61035e565b60405161014c9190610fa2565b60405180910390f35b61015d61038d565b60405161016a91906110f5565b60405180910390f35b61018d60048036038101906101889190610bb7565b610396565b60405161019a9190610fa2565b60405180910390f35b6101bd60048036038101906101b89190610b03565b6103cd565b6040516101ca91906110da565b60405180910390f35b6101db6103df565b6040516101e89190610fd8565b60405180910390f35b61020b60048036038101906102069190610bb7565b610471565b6040516102189190610fa2565b60405180910390f35b61023b60048036038101906102369190610bb7565b6104e8565b6040516102489190610fa2565b60405180910390f35b61025961050b565b6040516102669190610fbd565b60405180910390f35b61028960048036038101906102849190610b2c565b610529565b60405161029691906110da565b60405180910390f35b6060600380546102ae90611234565b80601f01602080910402602001604051908101604052809291908181526020018280546102da90611234565b80156103275780601f106102fc57610100808354040283529160200191610327565b820191906000526020600020905b81548152906001019060200180831161030a57829003601f168201915b5050505050905090565b60008061033c6105b0565b90506103498185856105b8565b600191505092915050565b6000600254905090565b6000806103696105b0565b9050610376858285610783565b61038185858561080f565b60019150509392505050565b60006012905090565b6000806103a16105b0565b90506103c28185856103b38589610529565b6103bd919061114c565b6105b8565b600191505092915050565b60006103d882610a87565b9050919050565b6060600480546103ee90611234565b80601f016020809104026020016040519081016040528092919081815260200182805461041a90611234565b80156104675780601f1061043c57610100808354040283529160200191610467565b820191906000526020600020905b81548152906001019060200180831161044a57829003601f168201915b5050505050905090565b60008061047c6105b0565b9050600061048a8286610529565b9050838110156104cf576040517f08c379a00000000000000000000000000000000000000000000000000000000081526004016104c6906110ba565b60405180910390fd5b6104dc82868684036105b8565b60019250505092915050565b6000806104f36105b0565b905061050081858561080f565b600191505092915050565b6000600560405161051c9190610f8b565b6040518091039020905090565b6000600160008473ffffffffffffffffffffffffffffffffffffffff1673ffffffffffffffffffffffffffffffffffffffff16815260200190815260200160002060008373ffffffffffffffffffffffffffffffffffffffff1673ffffffffffffffffffffffffffffffffffffffff16815260200190815260200160002054905092915050565b600033905090565b600073ffffffffffffffffffffffffffffffffffffffff168373ffffffffffffffffffffffffffffffffffffffff161415610628576040517f08c379a000000000000000000000000000000000000000000000000000000000815260040161061f9061109a565b60405180910390fd5b600073ffffffffffffffffffffffffffffffffffffffff168273ffffffffffffffffffffffffffffffffffffffff161415610698576040517f08c379a000000000000000000000000000000000000000000000000000000000815260040161068f9061101a565b60405180910390fd5b80600160008573ffffffffffffffffffffffffffffffffffffffff1673ffffffffffffffffffffffffffffffffffffffff16815260200190815260200160002060008473ffffffffffffffffffffffffffffffffffffffff1673ffffffffffffffffffffffffffffffffffffffff168152602001908152602001600020819055508173ffffffffffffffffffffffffffffffffffffffff168373ffffffffffffffffffffffffffffffffffffffff167f8c5be1e5ebec7d5bd14f71427d1e84f3dd0314c0f7b2291e5b200ac8c7c3b9258360405161077691906110da565b60405180910390a3505050565b600061078f8484610529565b90507fffffffffffffffffffffffffffffffffffffffffffffffffffffffffffffffff811461080957818110156107fb576040517f08c379a00000000000000000000000000000000000000000000000000000000081526004016107f29061103a565b60405180910390fd5b61080884848484036105b8565b5b50505050565b600073ffffffffffffffffffffffffffffffffffffffff168373ffffffffffffffffffffffffffffffffffffffff16141561087f576040517f08c379a00000000000000000000000000000000000000000000000000000000081526004016108769061107a565b60405180910390fd5b600073ffffffffffffffffffffffffffffffffffffffff168273ffffffffffffffffffffffffffffffffffffffff1614156108ef576040517f08c379a00000000000000000000000000000000000000000000000000000000081526004016108e690610ffa565b60405180910390fd5b6108fa838383610acf565b60008060008573ffffffffffffffffffffffffffffffffffffffff1673ffffffffffffffffffffffffffffffffffffffff16815260200190815260200160002054905081811015610980576040517f08c379a00000000000000000000000000000000000000000000000000000000081526004016109779061105a565b60405180910390fd5b8181036000808673ffffffffffffffffffffffffffffffffffffffff1673ffffffffffffffffffffffffffffffffffffffff16815260200190815260200160002081905550816000808573ffffffffffffffffffffffffffffffffffffffff1673ffffffffffffffffffffffffffffffffffffffff168152602001908152602001600020600082825401925050819055508273ffffffffffffffffffffffffffffffffffffffff168473ffffffffffffffffffffffffffffffffffffffff167fddf252ad1be2c89b69c2b068fc378daa952ba7f163c4a11628f55a4df523b3ef84604051610a6e91906110da565b60405180910390a3610a81848484610ad4565b50505050565b60008060008373ffffffffffffffffffffffffffffffffffffffff1673ffffffffffffffffffffffffffffffffffffffff168152602001908152602001600020549050919050565b505050565b505050565b600081359050610ae8816112d5565b92915050565b600081359050610afd816112ec565b92915050565b600060208284031215610b1557600080fd5b6000610b2384828501610ad9565b91505092915050565b60008060408385031215610b3f57600080fd5b6000610b4d85828601610ad9565b9250506020610b5e85828601610ad9565b9150509250929050565b600080600060608486031215610b7d57600080fd5b6000610b8b86828701610ad9565b9350506020610b9c86828701610ad9565b9250506040610bad86828701610aee565b9150509250925092565b60008060408385031215610bca57600080fd5b6000610bd885828601610ad9565b9250506020610be985828601610aee565b9150509250929050565b610bfc816111b4565b82525050565b610c0b816111c0565b82525050565b60008154610c1e81611234565b610c288186611130565b94506001821660008114610c435760018114610c5457610c87565b60ff19831686528186019350610c87565b610c5d85611110565b60005b83811015610c7f57815481890152600182019150602081019050610c60565b838801955050505b50505092915050565b6000610c9b82611125565b610ca5818561113b565b9350610cb5818560208601611201565b610cbe816112c4565b840191505092915050565b6000610cd660238361113b565b91507f45524332303a207472616e7366657220746f20746865207a65726f206164647260008301527f65737300000000000000000000000000000000000000000000000000000000006020830152604082019050919050565b6000610d3c60228361113b565b91507f45524332303a20617070726f766520746f20746865207a65726f20616464726560008301527f73730000000000000000000000000000000000000000000000000000000000006020830152604082019050919050565b6000610da2601d8361113b565b91507f45524332303a20696e73756666696369656e7420616c6c6f77616e63650000006000830152602082019050919050565b6000610de260268361113b565b91507f45524332303a207472616e7366657220616d6f756e742065786365656473206260008301527f616c616e636500000000000000000000000000000000000000000000000000006020830152604082019050919050565b6000610e4860258361113b565b91507f45524332303a207472616e736665722066726f6d20746865207a65726f20616460008301527f64726573730000000000000000000000000000000000000000000000000000006020830152604082019050919050565b6000610eae60248361113b565b91507f45524332303a20617070726f76652066726f6d20746865207a65726f2061646460008301527f72657373000000000000000000000000000000000000000000000000000000006020830152604082019050919050565b6000610f1460258361113b565b91507f45524332303a2064656372656173656420616c6c6f77616e63652062656c6f7760008301527f207a65726f0000000000000000000000000000000000000000000000000000006020830152604082019050919050565b610f76816111ea565b82525050565b610f85816111f4565b82525050565b6000610f978284610c11565b915081905092915050565b6000602082019050610fb76000830184610bf3565b92915050565b6000602082019050610fd26000830184610c02565b92915050565b60006020820190508181036000830152610ff28184610c90565b905092915050565b6000602082019050818103600083015261101381610cc9565b9050919050565b6000602082019050818103600083015261103381610d2f565b9050919050565b6000602082019050818103600083015261105381610d95565b9050919050565b6000602082019050818103600083015261107381610dd5565b9050919050565b6000602082019050818103600083015261109381610e3b565b9050919050565b600060208201905081810360008301526110b381610ea1565b9050919050565b600060208201905081810360008301526110d381610f07565b9050919050565b60006020820190506110ef6000830184610f6d565b92915050565b600060208201905061110a6000830184610f7c565b92915050565b60008190508160005260206000209050919050565b600081519050919050565b600081905092915050565b600082825260208201905092915050565b6000611157826111ea565b9150611162836111ea565b9250827fffffffffffffffffffffffffffffffffffffffffffffffffffffffffffffffff0382111561119757611196611266565b5b828201905092915050565b60006111ad826111ca565b9050919050565b60008115159050919050565b6000819050919050565b600073ffffffffffffffffffffffffffffffffffffffff82169050919050565b6000819050919050565b600060ff82169050919050565b60005b8381101561121f578082015181840152602081019050611204565b8381111561122e576000848401525b50505050565b6000600282049050600182168061124c57607f821691505b602082108114156112605761125f611295565b5b50919050565b7f4e487b7100000000000000000000000000000000000000000000000000000000600052601160045260246000fd5b7f4e487b7100000000000000000000000000000000000000000000000000000000600052602260045260246000fd5b6000601f19601f8301169050919050565b6112de816111a2565b81146112e957600080fd5b50565b6112f5816111ea565b811461130057600080fd5b5056fea2646970667358221220a0a80577b786adefffb380af4e6a666c4fc9a50b240f044c070180d35f3a38c964736f6c634300080000336956424f5277304b47676f414141414e535568455567414141506f4141414650434159414141426b6e4e4e50414141414358424957584d41414173544141414c457745416d7077594141414141584e535230494172733463365141414141526e51553142414143786a77763859515541414172705355524256486742376430766a4e35464873667834594b34354179475332567854546942416d5242565542535279554241515a43546d4549416f4d694a4a6a44454f54576b594241305a5546565547544f6c6232446c4e78647a6e5832382f2b2b4e487430743139647666354e393935765a496e33584c6951734a375a3537357a572b6d4e5141414141414141414141414141414141414141414141414141414141414141414141414141414141414141414141414141414141415930564d505037372b7341476c2f616b4235516b6442694230474944515951424368774549485159676442694130474541516f63424342304749485159674e426841454b484151676442694230474944515951424368774549485159676442694130474541516f63424342304749485159774e4f7464792b3830746f7a6632307332662f2b4d3330652b2f742f662f763533395050442f375636454f423046397437664c66476875535877414a6676377a39382b767264332f35664666466d784d2f36477a57582f2b533275586e6a762b66302f6f435436662f414b347639666133732b4e3952493671355666424a6c78485a31314a666245662b386e34612b42304e6d4d4f66365858352f2b6e746a762f4c442f353133662f5664413647794877364e2b527672623334702b6959544f39736c332f757676547a2f50492f32645734337a457a7262625237707239356f625866484b48394f5171635032537552555436722b50642b33492f2b70754450514f6a304a6176343254755254373748332f354f38417577425a5a2b5a63582b7a552f322f33797463544b683037644d36612b3933646f4858353638635764775171654742502f755a2f7652767a564e37336d4d304b6b6c302f6b453730576e7877696465684a3570764a583332684d684535646566616571547843707a68542b514e437037367378756378334d4378433530784a504b4259786336347867346471457a6c6b522b343850686e72554c6e66486b4f2f7467712f46435a3078354b57616750664a435a317a5a497a2f4943634a435a327a58337876692b37725147567357357762594b697430794f3635346c4e346f554d55483957464470455250666634465356306d4f567474364b4544724d737a4255643159554f683831585242556a6444677332324d4c7273414c4859347175414976644467714933717833584a43687963707469676e644869534b792b31536f514f54314a732b6935304f4536683158653371573561726748652b6252745444614a5a4f523635746e703056492b726a53615848352b75714b35414b4676576b4c662b376c746c635366344b2b384f4931716f7836546245536e744e77336e7338386d6d56684b74486e2b4b575246506f46357a73367030767733337a52327566767448626e687a614d673638304e5749584f6f764c4b4438486e3539486b4f2f70425169647330766b695833335a697576794d4b6b30446d2f335a335776762b716c5a5a4679514b457a7358632f6e61617a6c646c524966665a4947756175784368304d5365306233617179367778465a6e42746c4e62347a516d643573737576387666316a676d6435637032336d3362306f7651575945526e7139335275677358306230544f505a476b4a6e4e61727369532f794330766f724d623958316f4a516f6354374e31744a516764546c446c6558715266772b68737a6f56496845366e4b4c437450662b58717441364b784f696442724c436f4b48593654616276464f436975796950434a6e525771666458504176743252633671394e3936455832416a5368737971396e375757372b656d376e434b5335646231347063785451544f7176522b335647743739726c51696431656a356676457377685537456b766f4c4e384c722f523965757164573630616f624e3856322b30626d556b4c33692f6e4e425a726f7a6d505439574b336f4d6c74425a6e6b7a586a655a62536567737a3757336a4f5a62537567737838757637302f6258323364796b68652b4f35336f584e784354796a656138795a53392b524c5851755a6845667632393172554272704a36757346355a6548743668757461376b597376435566535a307a69344c62686e4665392f6d6d6c48382b362f614349544f34764c34374f5858706f57333375384e542b5266663952474958524f56796e7779504651695879674b3536467a704d6c364d76505433486e3366494b676365416b5966516d655237643934687a2f66756846307037746b63656145444a52596c3945314c544a7434504a582f33337753654f394850693069492f6a4f70304e47486b4c66744d5457383436794873774c62344e4e317738544f72586c47586b656f51312b5837765171536c685a3864624e7351676441724b55564466664448305650306f6f564f485566785951716547784a3349422f387566687968303763737467337739746c46435a332b5a4e524f34446c375865414c4554723979434c62765a2b6d794533527a30546f624c66456e63734f453766522b3979457a6e5a4a7a496e372f70365265346d457a766249587652696c787475433266477354324d3369746a5247643733506a773064746c6d634c50643551662f4c6e584f442b68737a304f4472733434527936672b2f75767a78616f444d44574a6a513655642b4365535455323869775766424c7446626b542b52304f6e584848374d30526538386e675a6845344e632f5135617a373733724f7878696a2f4f36465453343746757662324e4c326652336a426537784755516b2b6f2f75626e3078337467394f364e5232634b764d2b363139384f555968324165512b694d495a456e39743776696a736e6f544f57544f6348484e32467a6e67532b6275665464644d44554c6f6a436d37384c4936503868555875694d4c5650355464795573325a4368397955557a78326f554d556a31336f4d43736375394468734d52656349484f587664746b4465764e6d322b526e6e2b6a43774c64486e585063644a46794830545a7576394e306d682b394e7633523565697673306e4e6a2f514a4937486e5076636839366b4c6e6a7a4b6135542f776641344f613777352f664d45662b58462f63394c39586557355a64616a7262367839394c6e47516a64425a33634954547a394e3934346b2b6234586c4f32315642322f41765448392b33624f59687a6e4d31394e2f506b3730337666566557393970504f73657545304c6d597244484d7756633934434750334470666e78413679354849452f76757a565a4f707643647677416a644a5a7264326536636158615563795a776e653841436c306c69387239586c6b57476b716e366c3778787470684d3571354e4663745a453954786736486457467a75724d73566653365864316f624e616551795863396172794b6a653451713830466d3962446a5a68763338793544494f7a772b577569735236584862746b4333426d687378377a335767565a4b64635a347479516d64394b6c3241324e6e30586569737a2f785354415764375838584f75755657303472534f67647262344c6e665771394b5a6252364f3630466d762b56434c4369342f33336f68644e617679766630484b2f564361477a6667392b6253554948553777344a2b7468506b517a5134496e6657377639664b3647546c5865687745546b4f75774e4368347377645963426d4c72444149514f78366830745a505134526843587a756873333464625453705175697358306437784b73514f75746e524638376f624e6569627a366c637462534f6973562b64336d50564b364b7858675375494839504a74564e435a3331796f4b4a702b3059496e6656493446647674484b4d3648424962694b744f4a6f4c485836547538567a5a316c466e5a7957493352574b342f54727233567975726b576d6968737a714a2f4d3150576c6b646e576a3764494e5679485339386b6765485231624c5853574b32397a5a6545746f56636e64495a303563583955667a74635a3656373931747652413646354d525049466e5662336172726654474e45704c362b61586e6c7043727a5351524b4c7976507a547036686839413558554c4f73635a5a52632b6f33646c4e6f6976523262565351743847327a446c6665625a36633845504e394163766a44342b3763616a30522b71596c6f7372506d69764b6c4c327a4564324747546972446d2b444654716331653376576d2b45446d655252326f64505661624352334f6f7350525049514f69386f69334a3066576f2b45446f766176646c364a585259524d656a65516764467448786142354368394e3050707148304f45304f352b3233676b6454704b52764d506e356b634a485936544b58766e3338316e516f666a66504e46562b2b636e30546f384353374f31322b764849636f634e5243627a496c48306d64446773552f564d325973524f7377532b6463666c666c6566706a5149584c7253703658463477386841364a50434e356765666c7878453659787367386e41344a4f504b4e44335439654b526839415a552b4746747963524f75504a632f4b4d354a33636262344d516d63737437397437667576326d69457a686a6d7832654674725765686443704c334558656b486c5049524f58526e4673326339302f5842435a3261456e636948326a4237535243703562357a624e4276347366522b6a5549504154435a322b435877685171645039333663376b45542b454b45546a2b794a2f336554394e436d3057324d784536322b3367386f526230386874394434336f624e644d6c4c50493366434875444e736e55514f70733168373133393148597075564c4a335457492f486d6b35677a48582f7736364f6657546d68637a357a754c4d454f2f2b7a66424c7950466f662f4633516d2f545577342b76503278416163364d67774549485159676442694130474541516f63424342304749485159674e426841454b484151676442694230474944515951424368774549485159676442694130474541516f63424342304749485159674e426841454b48415167644269423041414141414141414141414141414141414141414141414141414141414141414141414141414141414141414141414141414141414141416576562f4862722f6d54326941365941414141415355564f524b35435949493d","opcodes":"PUSH1 0x80 PUSH1 0x40 MSTORE CALLVALUE DUP1 ISZERO PUSH3 0x11 JUMPI PUSH1 0x0 DUP1 REVERT JUMPDEST POP PUSH1 0x40 MLOAD PUSH3 0x2B1C CODESIZE SUB DUP1 PUSH3 0x2B1C DUP4 CODECOPY DUP2 DUP2 ADD PUSH1 0x40 MSTORE DUP2 ADD SWAP1 PUSH3 0x37 SWAP2 SWAP1 PUSH3 0x3F5 JUMP JUMPDEST PUSH1 0x40 MLOAD DUP1 PUSH1 0x40 ADD PUSH1 0x40 MSTORE DUP1 PUSH1 0x6 DUP2 MSTORE PUSH1 0x20 ADD PUSH32 0x42414E4959410000000000000000000000000000000000000000000000000000 DUP2 MSTORE POP PUSH1 0x40 MLOAD DUP1 PUSH1 0x40 ADD PUSH1 0x40 MSTORE DUP1 PUSH1 0x3 DUP2 MSTORE PUSH1 0x20 ADD PUSH32 0x42414E0000000000000000000000000000000000000000000000000000000000 DUP2 MSTORE POP DUP2 PUSH1 0x3 SWAP1 DUP1 MLOAD SWAP1 PUSH1 0x20 ADD SWAP1 PUSH3 0xBB SWAP3 SWAP2 SWAP1 PUSH3 0x2D3 JUMP JUMPDEST POP DUP1 PUSH1 0x4 SWAP1 DUP1 MLOAD SWAP1 PUSH1 0x20 ADD SWAP1 PUSH3 0xD4 SWAP3 SWAP2 SWAP1 PUSH3 0x2D3 JUMP JUMPDEST POP POP POP PUSH3 0x116 CALLER PUSH3 0xEC PUSH3 0x152 PUSH1 0x20 SHL PUSH1 0x20 SHR JUMP JUMPDEST PUSH1 0xA PUSH3 0xFA SWAP2 SWAP1 PUSH3 0x5FC JUMP JUMPDEST PUSH3 0xF4240 PUSH3 0x10A SWAP2 SWAP1 PUSH3 0x739 JUMP JUMPDEST PUSH3 0x15B PUSH1 0x20 SHL PUSH1 0x20 SHR JUMP JUMPDEST PUSH1 0x40 MLOAD DUP1 PUSH2 0xF40 ADD PUSH1 0x40 MSTORE DUP1 PUSH2 0xF1C DUP2 MSTORE PUSH1 0x20 ADD PUSH3 0x1C00 PUSH2 0xF1C SWAP2 CODECOPY PUSH1 0x5 SWAP1 DUP1 MLOAD SWAP1 PUSH1 0x20 ADD SWAP1 PUSH3 0x14A SWAP3 SWAP2 SWAP1 PUSH3 0x2D3 JUMP JUMPDEST POP POP PUSH3 0x8B7 JUMP JUMPDEST PUSH1 0x0 PUSH1 0x12 SWAP1 POP SWAP1 JUMP JUMPDEST PUSH1 0x0 PUSH20 0xFFFFFFFFFFFFFFFFFFFFFFFFFFFFFFFFFFFFFFFF AND DUP3 PUSH20 0xFFFFFFFFFFFFFFFFFFFFFFFFFFFFFFFFFFFFFFFF AND EQ ISZERO PUSH3 0x1CE JUMPI PUSH1 0x40 MLOAD PUSH32 0x8C379A000000000000000000000000000000000000000000000000000000000 DUP2 MSTORE PUSH1 0x4 ADD PUSH3 0x1C5 SWAP1 PUSH3 0x48D JUMP JUMPDEST PUSH1 0x40 MLOAD DUP1 SWAP2 SUB SWAP1 REVERT JUMPDEST PUSH3 0x1E2 PUSH1 0x0 DUP4 DUP4 PUSH3 0x2C9 PUSH1 0x20 SHL PUSH1 0x20 SHR JUMP JUMPDEST DUP1 PUSH1 0x2 PUSH1 0x0 DUP3 DUP3 SLOAD PUSH3 0x1F6 SWAP2 SWAP1 PUSH3 0x544 JUMP JUMPDEST SWAP3 POP POP DUP2 SWAP1 SSTORE POP DUP1 PUSH1 0x0 DUP1 DUP5 PUSH20 0xFFFFFFFFFFFFFFFFFFFFFFFFFFFFFFFFFFFFFFFF AND PUSH20 0xFFFFFFFFFFFFFFFFFFFFFFFFFFFFFFFFFFFFFFFF AND DUP2 MSTORE PUSH1 0x20 ADD SWAP1 DUP2 MSTORE PUSH1 0x20 ADD PUSH1 0x0 KECCAK256 PUSH1 0x0 DUP3 DUP3 SLOAD ADD SWAP3 POP POP DUP2 SWAP1 SSTORE POP DUP2 PUSH20 0xFFFFFFFFFFFFFFFFFFFFFFFFFFFFFFFFFFFFFFFF AND PUSH1 0x0 PUSH20 0xFFFFFFFFFFFFFFFFFFFFFFFFFFFFFFFFFFFFFFFF AND PUSH32 0xDDF252AD1BE2C89B69C2B068FC378DAA952BA7F163C4A11628F55A4DF523B3EF DUP4 PUSH1 0x40 MLOAD PUSH3 0x2A9 SWAP2 SWAP1 PUSH3 0x4AF JUMP JUMPDEST PUSH1 0x40 MLOAD DUP1 SWAP2 SUB SWAP1 LOG3 PUSH3 0x2C5 PUSH1 0x0 DUP4 DUP4 PUSH3 0x2CE PUSH1 0x20 SHL PUSH1 0x20 SHR JUMP JUMPDEST POP POP JUMP JUMPDEST POP POP POP JUMP JUMPDEST POP POP POP JUMP JUMPDEST DUP3 DUP1 SLOAD PUSH3 0x2E1 SWAP1 PUSH3 0x7E7 JUMP JUMPDEST SWAP1 PUSH1 0x0 MSTORE PUSH1 0x20 PUSH1 0x0 KECCAK256 SWAP1 PUSH1 0x1F ADD PUSH1 0x20 SWAP1 DIV DUP2 ADD SWAP3 DUP3 PUSH3 0x305 JUMPI PUSH1 0x0 DUP6 SSTORE PUSH3 0x351 JUMP JUMPDEST DUP3 PUSH1 0x1F LT PUSH3 0x320 JUMPI DUP1 MLOAD PUSH1 0xFF NOT AND DUP4 DUP1 ADD OR DUP6 SSTORE PUSH3 0x351 JUMP JUMPDEST DUP3 DUP1 ADD PUSH1 0x1 ADD DUP6 SSTORE DUP3 ISZERO PUSH3 0x351 JUMPI SWAP2 DUP3 ADD JUMPDEST DUP3 DUP2 GT ISZERO PUSH3 0x350 JUMPI DUP3 MLOAD DUP3 SSTORE SWAP2 PUSH1 0x20 ADD SWAP2 SWAP1 PUSH1 0x1 ADD SWAP1 PUSH3 0x333 JUMP JUMPDEST JUMPDEST POP SWAP1 POP PUSH3 0x360 SWAP2 SWAP1 PUSH3 0x364 JUMP JUMPDEST POP SWAP1 JUMP JUMPDEST JUMPDEST DUP1 DUP3 GT ISZERO PUSH3 0x37F JUMPI PUSH1 0x0 DUP2 PUSH1 0x0 SWAP1 SSTORE POP PUSH1 0x1 ADD PUSH3 0x365 JUMP JUMPDEST POP SWAP1 JUMP JUMPDEST PUSH1 0x0 PUSH3 0x39A PUSH3 0x394 DUP5 PUSH3 0x500 JUMP JUMPDEST PUSH3 0x4CC JUMP JUMPDEST SWAP1 POP DUP3 DUP2 MSTORE PUSH1 0x20 DUP2 ADD DUP5 DUP5 DUP5 ADD GT ISZERO PUSH3 0x3B3 JUMPI PUSH1 0x0 DUP1 REVERT JUMPDEST PUSH3 0x3C0 DUP5 DUP3 DUP6 PUSH3 0x7B1 JUMP JUMPDEST POP SWAP4 SWAP3 POP POP POP JUMP JUMPDEST PUSH1 0x0 DUP3 PUSH1 0x1F DUP4 ADD SLT PUSH3 0x3DA JUMPI PUSH1 0x0 DUP1 REVERT JUMPDEST DUP2 MLOAD PUSH3 0x3EC DUP5 DUP3 PUSH1 0x20 DUP7 ADD PUSH3 0x383 JUMP JUMPDEST SWAP2 POP POP SWAP3 SWAP2 POP POP JUMP JUMPDEST PUSH1 0x0 PUSH1 0x20 DUP3 DUP5 SUB SLT ISZERO PUSH3 0x408 JUMPI PUSH1 0x0 DUP1 REVERT JUMPDEST PUSH1 0x0 DUP3 ADD MLOAD PUSH8 0xFFFFFFFFFFFFFFFF DUP2 GT ISZERO PUSH3 0x423 JUMPI PUSH1 0x0 DUP1 REVERT JUMPDEST PUSH3 0x431 DUP5 DUP3 DUP6 ADD PUSH3 0x3C8 JUMP JUMPDEST SWAP2 POP POP SWAP3 SWAP2 POP POP JUMP JUMPDEST PUSH1 0x0 PUSH3 0x449 PUSH1 0x1F DUP4 PUSH3 0x533 JUMP JUMPDEST SWAP2 POP PUSH32 0x45524332303A206D696E7420746F20746865207A65726F206164647265737300 PUSH1 0x0 DUP4 ADD MSTORE PUSH1 0x20 DUP3 ADD SWAP1 POP SWAP2 SWAP1 POP JUMP JUMPDEST PUSH3 0x487 DUP2 PUSH3 0x79A JUMP JUMPDEST DUP3 MSTORE POP POP JUMP JUMPDEST PUSH1 0x0 PUSH1 0x20 DUP3 ADD SWAP1 POP DUP2 DUP2 SUB PUSH1 0x0 DUP4 ADD MSTORE PUSH3 0x4A8 DUP2 PUSH3 0x43A JUMP JUMPDEST SWAP1 POP SWAP2 SWAP1 POP JUMP JUMPDEST PUSH1 0x0 PUSH1 0x20 DUP3 ADD SWAP1 POP PUSH3 0x4C6 PUSH1 0x0 DUP4 ADD DUP5 PUSH3 0x47C JUMP JUMPDEST SWAP3 SWAP2 POP POP JUMP JUMPDEST PUSH1 0x0 PUSH1 0x40 MLOAD SWAP1 POP DUP2 DUP2 ADD DUP2 DUP2 LT PUSH8 0xFFFFFFFFFFFFFFFF DUP3 GT OR ISZERO PUSH3 0x4F6 JUMPI PUSH3 0x4F5 PUSH3 0x87B JUMP JUMPDEST JUMPDEST DUP1 PUSH1 0x40 MSTORE POP SWAP2 SWAP1 POP JUMP JUMPDEST PUSH1 0x0 PUSH8 0xFFFFFFFFFFFFFFFF DUP3 GT ISZERO PUSH3 0x51E JUMPI PUSH3 0x51D PUSH3 0x87B JUMP JUMPDEST JUMPDEST PUSH1 0x1F NOT PUSH1 0x1F DUP4 ADD AND SWAP1 POP PUSH1 0x20 DUP2 ADD SWAP1 POP SWAP2 SWAP1 POP JUMP JUMPDEST PUSH1 0x0 DUP3 DUP3 MSTORE PUSH1 0x20 DUP3 ADD SWAP1 POP SWAP3 SWAP2 POP POP JUMP JUMPDEST PUSH1 0x0 PUSH3 0x551 DUP3 PUSH3 0x79A JUMP JUMPDEST SWAP2 POP PUSH3 0x55E DUP4 PUSH3 0x79A JUMP JUMPDEST SWAP3 POP DUP3 PUSH32 0xFFFFFFFFFFFFFFFFFFFFFFFFFFFFFFFFFFFFFFFFFFFFFFFFFFFFFFFFFFFFFFFF SUB DUP3 GT ISZERO PUSH3 0x596 JUMPI PUSH3 0x595 PUSH3 0x81D JUMP JUMPDEST JUMPDEST DUP3 DUP3 ADD SWAP1 POP SWAP3 SWAP2 POP POP JUMP JUMPDEST PUSH1 0x0 DUP1 DUP3 SWAP2 POP DUP4 SWAP1 POP JUMPDEST PUSH1 0x1 DUP6 GT ISZERO PUSH3 0x5F3 JUMPI DUP1 DUP7 DIV DUP2 GT ISZERO PUSH3 0x5CB JUMPI PUSH3 0x5CA PUSH3 0x81D JUMP JUMPDEST JUMPDEST PUSH1 0x1 DUP6 AND ISZERO PUSH3 0x5DB JUMPI DUP1 DUP3 MUL SWAP2 POP JUMPDEST DUP1 DUP2 MUL SWAP1 POP PUSH3 0x5EB DUP6 PUSH3 0x8AA JUMP JUMPDEST SWAP5 POP PUSH3 0x5AB JUMP JUMPDEST SWAP5 POP SWAP5 SWAP3 POP POP POP JUMP JUMPDEST PUSH1 0x0 PUSH3 0x609 DUP3 PUSH3 0x79A JUMP JUMPDEST SWAP2 POP PUSH3 0x616 DUP4 PUSH3 0x7A4 JUMP JUMPDEST SWAP3 POP PUSH3 0x645 PUSH32 0xFFFFFFFFFFFFFFFFFFFFFFFFFFFFFFFFFFFFFFFFFFFFFFFFFFFFFFFFFFFFFFFF DUP5 DUP5 PUSH3 0x64D JUMP JUMPDEST SWAP1 POP SWAP3 SWAP2 POP POP JUMP JUMPDEST PUSH1 0x0 DUP3 PUSH3 0x65F JUMPI PUSH1 0x1 SWAP1 POP PUSH3 0x732 JUMP JUMPDEST DUP2 PUSH3 0x66F JUMPI PUSH1 0x0 SWAP1 POP PUSH3 0x732 JUMP JUMPDEST DUP2 PUSH1 0x1 DUP2 EQ PUSH3 0x688 JUMPI PUSH1 0x2 DUP2 EQ PUSH3 0x693 JUMPI PUSH3 0x6C9 JUMP JUMPDEST PUSH1 0x1 SWAP2 POP POP PUSH3 0x732 JUMP JUMPDEST PUSH1 0xFF DUP5 GT ISZERO PUSH3 0x6A8 JUMPI PUSH3 0x6A7 PUSH3 0x81D JUMP JUMPDEST JUMPDEST DUP4 PUSH1 0x2 EXP SWAP2 POP DUP5 DUP3 GT ISZERO PUSH3 0x6C2 JUMPI PUSH3 0x6C1 PUSH3 0x81D JUMP JUMPDEST JUMPDEST POP PUSH3 0x732 JUMP JUMPDEST POP PUSH1 0x20 DUP4 LT PUSH2 0x133 DUP4 LT AND PUSH1 0x4E DUP5 LT PUSH1 0xB DUP5 LT AND OR ISZERO PUSH3 0x703 JUMPI DUP3 DUP3 EXP SWAP1 POP DUP4 DUP2 GT ISZERO PUSH3 0x6FD JUMPI PUSH3 0x6FC PUSH3 0x81D JUMP JUMPDEST JUMPDEST PUSH3 0x732 JUMP JUMPDEST PUSH3 0x712 DUP5 DUP5 DUP5 PUSH1 0x1 PUSH3 0x5A1 JUMP JUMPDEST SWAP3 POP SWAP1 POP DUP2 DUP5 DIV DUP2 GT ISZERO PUSH3 0x72C JUMPI PUSH3 0x72B PUSH3 0x81D JUMP JUMPDEST JUMPDEST DUP2 DUP2 MUL SWAP1 POP JUMPDEST SWAP4 SWAP3 POP POP POP JUMP JUMPDEST PUSH1 0x0 PUSH3 0x746 DUP3 PUSH3 0x79A JUMP JUMPDEST SWAP2 POP PUSH3 0x753 DUP4 PUSH3 0x79A JUMP JUMPDEST SWAP3 POP DUP2 PUSH32 0xFFFFFFFFFFFFFFFFFFFFFFFFFFFFFFFFFFFFFFFFFFFFFFFFFFFFFFFFFFFFFFFF DIV DUP4 GT DUP3 ISZERO ISZERO AND ISZERO PUSH3 0x78F JUMPI PUSH3 0x78E PUSH3 0x81D JUMP JUMPDEST JUMPDEST DUP3 DUP3 MUL SWAP1 POP SWAP3 SWAP2 POP POP JUMP JUMPDEST PUSH1 0x0 DUP2 SWAP1 POP SWAP2 SWAP1 POP JUMP JUMPDEST PUSH1 0x0 PUSH1 0xFF DUP3 AND SWAP1 POP SWAP2 SWAP1 POP JUMP JUMPDEST PUSH1 0x0 JUMPDEST DUP4 DUP2 LT ISZERO PUSH3 0x7D1 JUMPI DUP1 DUP3 ADD MLOAD DUP2 DUP5 ADD MSTORE PUSH1 0x20 DUP2 ADD SWAP1 POP PUSH3 0x7B4 JUMP JUMPDEST DUP4 DUP2 GT ISZERO PUSH3 0x7E1 JUMPI PUSH1 0x0 DUP5 DUP5 ADD MSTORE JUMPDEST POP POP POP POP JUMP JUMPDEST PUSH1 0x0 PUSH1 0x2 DUP3 DIV SWAP1 POP PUSH1 0x1 DUP3 AND DUP1 PUSH3 0x800 JUMPI PUSH1 0x7F DUP3 AND SWAP2 POP JUMPDEST PUSH1 0x20 DUP3 LT DUP2 EQ ISZERO PUSH3 0x817 JUMPI PUSH3 0x816 PUSH3 0x84C JUMP JUMPDEST JUMPDEST POP SWAP2 SWAP1 POP JUMP JUMPDEST PUSH32 0x4E487B7100000000000000000000000000000000000000000000000000000000 PUSH1 0x0 MSTORE PUSH1 0x11 PUSH1 0x4 MSTORE PUSH1 0x24 PUSH1 0x0 REVERT JUMPDEST PUSH32 0x4E487B7100000000000000000000000000000000000000000000000000000000 PUSH1 0x0 MSTORE PUSH1 0x22 PUSH1 0x4 MSTORE PUSH1 0x24 PUSH1 0x0 REVERT JUMPDEST PUSH32 0x4E487B7100000000000000000000000000000000000000000000000000000000 PUSH1 0x0 MSTORE PUSH1 0x41 PUSH1 0x4 MSTORE PUSH1 0x24 PUSH1 0x0 REVERT JUMPDEST PUSH1 0x0 DUP2 PUSH1 0x1 SHR SWAP1 POP SWAP2 SWAP1 POP JUMP JUMPDEST PUSH2 0x1339 DUP1 PUSH3 0x8C7 PUSH1 0x0 CODECOPY PUSH1 0x0 RETURN INVALID PUSH1 0x80 PUSH1 0x40 MSTORE CALLVALUE DUP1 ISZERO PUSH2 0x10 JUMPI PUSH1 0x0 DUP1 REVERT JUMPDEST POP PUSH1 0x4 CALLDATASIZE LT PUSH2 0xB4 JUMPI PUSH1 0x0 CALLDATALOAD PUSH1 0xE0 SHR DUP1 PUSH4 0x70A08231 GT PUSH2 0x71 JUMPI DUP1 PUSH4 0x70A08231 EQ PUSH2 0x1A3 JUMPI DUP1 PUSH4 0x95D89B41 EQ PUSH2 0x1D3 JUMPI DUP1 PUSH4 0xA457C2D7 EQ PUSH2 0x1F1 JUMPI DUP1 PUSH4 0xA9059CBB EQ PUSH2 0x221 JUMPI DUP1 PUSH4 0xC557B985 EQ PUSH2 0x251 JUMPI DUP1 PUSH4 0xDD62ED3E EQ PUSH2 0x26F JUMPI PUSH2 0xB4 JUMP JUMPDEST DUP1 PUSH4 0x6FDDE03 EQ PUSH2 0xB9 JUMPI DUP1 PUSH4 0x95EA7B3 EQ PUSH2 0xD7 JUMPI DUP1 PUSH4 0x18160DDD EQ PUSH2 0x107 JUMPI DUP1 PUSH4 0x23B872DD EQ PUSH2 0x125 JUMPI DUP1 PUSH4 0x313CE567 EQ PUSH2 0x155 JUMPI DUP1 PUSH4 0x39509351 EQ PUSH2 0x173 JUMPI JUMPDEST PUSH1 0x0 DUP1 REVERT JUMPDEST PUSH2 0xC1 PUSH2 0x29F JUMP JUMPDEST PUSH1 0x40 MLOAD PUSH2 0xCE SWAP2 SWAP1 PUSH2 0xFD8 JUMP JUMPDEST PUSH1 0x40 MLOAD DUP1 SWAP2 SUB SWAP1 RETURN JUMPDEST PUSH2 0xF1 PUSH1 0x4 DUP1 CALLDATASIZE SUB DUP2 ADD SWAP1 PUSH2 0xEC SWAP2 SWAP1 PUSH2 0xBB7 JUMP JUMPDEST PUSH2 0x331 JUMP JUMPDEST PUSH1 0x40 MLOAD PUSH2 0xFE SWAP2 SWAP1 PUSH2 0xFA2 JUMP JUMPDEST PUSH1 0x40 MLOAD DUP1 SWAP2 SUB SWAP1 RETURN JUMPDEST PUSH2 0x10F PUSH2 0x354 JUMP JUMPDEST PUSH1 0x40 MLOAD PUSH2 0x11C SWAP2 SWAP1 PUSH2 0x10DA JUMP JUMPDEST PUSH1 0x40 MLOAD DUP1 SWAP2 SUB SWAP1 RETURN JUMPDEST PUSH2 0x13F PUSH1 0x4 DUP1 CALLDATASIZE SUB DUP2 ADD SWAP1 PUSH2 0x13A SWAP2 SWAP1 PUSH2 0xB68 JUMP JUMPDEST PUSH2 0x35E JUMP JUMPDEST PUSH1 0x40 MLOAD PUSH2 0x14C SWAP2 SWAP1 PUSH2 0xFA2 JUMP JUMPDEST PUSH1 0x40 MLOAD DUP1 SWAP2 SUB SWAP1 RETURN JUMPDEST PUSH2 0x15D PUSH2 0x38D JUMP JUMPDEST PUSH1 0x40 MLOAD PUSH2 0x16A SWAP2 SWAP1 PUSH2 0x10F5 JUMP JUMPDEST PUSH1 0x40 MLOAD DUP1 SWAP2 SUB SWAP1 RETURN JUMPDEST PUSH2 0x18D PUSH1 0x4 DUP1 CALLDATASIZE SUB DUP2 ADD SWAP1 PUSH2 0x188 SWAP2 SWAP1 PUSH2 0xBB7 JUMP JUMPDEST PUSH2 0x396 JUMP JUMPDEST PUSH1 0x40 MLOAD PUSH2 0x19A SWAP2 SWAP1 PUSH2 0xFA2 JUMP JUMPDEST PUSH1 0x40 MLOAD DUP1 SWAP2 SUB SWAP1 RETURN JUMPDEST PUSH2 0x1BD PUSH1 0x4 DUP1 CALLDATASIZE SUB DUP2 ADD SWAP1 PUSH2 0x1B8 SWAP2 SWAP1 PUSH2 0xB03 JUMP JUMPDEST PUSH2 0x3CD JUMP JUMPDEST PUSH1 0x40 MLOAD PUSH2 0x1CA SWAP2 SWAP1 PUSH2 0x10DA JUMP JUMPDEST PUSH1 0x40 MLOAD DUP1 SWAP2 SUB SWAP1 RETURN JUMPDEST PUSH2 0x1DB PUSH2 0x3DF JUMP JUMPDEST PUSH1 0x40 MLOAD PUSH2 0x1E8 SWAP2 SWAP1 PUSH2 0xFD8 JUMP JUMPDEST PUSH1 0x40 MLOAD DUP1 SWAP2 SUB SWAP1 RETURN JUMPDEST PUSH2 0x20B PUSH1 0x4 DUP1 CALLDATASIZE SUB DUP2 ADD SWAP1 PUSH2 0x206 SWAP2 SWAP1 PUSH2 0xBB7 JUMP JUMPDEST PUSH2 0x471 JUMP JUMPDEST PUSH1 0x40 MLOAD PUSH2 0x218 SWAP2 SWAP1 PUSH2 0xFA2 JUMP JUMPDEST PUSH1 0x40 MLOAD DUP1 SWAP2 SUB SWAP1 RETURN JUMPDEST PUSH2 0x23B PUSH1 0x4 DUP1 CALLDATASIZE SUB DUP2 ADD SWAP1 PUSH2 0x236 SWAP2 SWAP1 PUSH2 0xBB7 JUMP JUMPDEST PUSH2 0x4E8 JUMP JUMPDEST PUSH1 0x40 MLOAD PUSH2 0x248 SWAP2 SWAP1 PUSH2 0xFA2 JUMP JUMPDEST PUSH1 0x40 MLOAD DUP1 SWAP2 SUB SWAP1 RETURN JUMPDEST PUSH2 0x259 PUSH2 0x50B JUMP JUMPDEST PUSH1 0x40 MLOAD PUSH2 0x266 SWAP2 SWAP1 PUSH2 0xFBD JUMP JUMPDEST PUSH1 0x40 MLOAD DUP1 SWAP2 SUB SWAP1 RETURN JUMPDEST PUSH2 0x289 PUSH1 0x4 DUP1 CALLDATASIZE SUB DUP2 ADD SWAP1 PUSH2 0x284 SWAP2 SWAP1 PUSH2 0xB2C JUMP JUMPDEST PUSH2 0x529 JUMP JUMPDEST PUSH1 0x40 MLOAD PUSH2 0x296 SWAP2 SWAP1 PUSH2 0x10DA JUMP JUMPDEST PUSH1 0x40 MLOAD DUP1 SWAP2 SUB SWAP1 RETURN JUMPDEST PUSH1 0x60 PUSH1 0x3 DUP1 SLOAD PUSH2 0x2AE SWAP1 PUSH2 0x1234 JUMP JUMPDEST DUP1 PUSH1 0x1F ADD PUSH1 0x20 DUP1 SWAP2 DIV MUL PUSH1 0x20 ADD PUSH1 0x40 MLOAD SWAP1 DUP2 ADD PUSH1 0x40 MSTORE DUP1 SWAP3 SWAP2 SWAP1 DUP2 DUP2 MSTORE PUSH1 0x20 ADD DUP3 DUP1 SLOAD PUSH2 0x2DA SWAP1 PUSH2 0x1234 JUMP JUMPDEST DUP1 ISZERO PUSH2 0x327 JUMPI DUP1 PUSH1 0x1F LT PUSH2 0x2FC JUMPI PUSH2 0x100 DUP1 DUP4 SLOAD DIV MUL DUP4 MSTORE SWAP2 PUSH1 0x20 ADD SWAP2 PUSH2 0x327 JUMP JUMPDEST DUP3 ADD SWAP2 SWAP1 PUSH1 0x0 MSTORE PUSH1 0x20 PUSH1 0x0 KECCAK256 SWAP1 JUMPDEST DUP2 SLOAD DUP2 MSTORE SWAP1 PUSH1 0x1 ADD SWAP1 PUSH1 0x20 ADD DUP1 DUP4 GT PUSH2 0x30A JUMPI DUP3 SWAP1 SUB PUSH1 0x1F AND DUP3 ADD SWAP2 JUMPDEST POP POP POP POP POP SWAP1 POP SWAP1 JUMP JUMPDEST PUSH1 0x0 DUP1 PUSH2 0x33C PUSH2 0x5B0 JUMP JUMPDEST SWAP1 POP PUSH2 0x349 DUP2 DUP6 DUP6 PUSH2 0x5B8 JUMP JUMPDEST PUSH1 0x1 SWAP2 POP POP SWAP3 SWAP2 POP POP JUMP JUMPDEST PUSH1 0x0 PUSH1 0x2 SLOAD SWAP1 POP SWAP1 JUMP JUMPDEST PUSH1 0x0 DUP1 PUSH2 0x369 PUSH2 0x5B0 JUMP JUMPDEST SWAP1 POP PUSH2 0x376 DUP6 DUP3 DUP6 PUSH2 0x783 JUMP JUMPDEST PUSH2 0x381 DUP6 DUP6 DUP6 PUSH2 0x80F JUMP JUMPDEST PUSH1 0x1 SWAP2 POP POP SWAP4 SWAP3 POP POP POP JUMP JUMPDEST PUSH1 0x0 PUSH1 0x12 SWAP1 POP SWAP1 JUMP JUMPDEST PUSH1 0x0 DUP1 PUSH2 0x3A1 PUSH2 0x5B0 JUMP JUMPDEST SWAP1 POP PUSH2 0x3C2 DUP2 DUP6 DUP6 PUSH2 0x3B3 DUP6 DUP10 PUSH2 0x529 JUMP JUMPDEST PUSH2 0x3BD SWAP2 SWAP1 PUSH2 0x114C JUMP JUMPDEST PUSH2 0x5B8 JUMP JUMPDEST PUSH1 0x1 SWAP2 POP POP SWAP3 SWAP2 POP POP JUMP JUMPDEST PUSH1 0x0 PUSH2 0x3D8 DUP3 PUSH2 0xA87 JUMP JUMPDEST SWAP1 POP SWAP2 SWAP1 POP JUMP JUMPDEST PUSH1 0x60 PUSH1 0x4 DUP1 SLOAD PUSH2 0x3EE SWAP1 PUSH2 0x1234 JUMP JUMPDEST DUP1 PUSH1 0x1F ADD PUSH1 0x20 DUP1 SWAP2 DIV MUL PUSH1 0x20 ADD PUSH1 0x40 MLOAD SWAP1 DUP2 ADD PUSH1 0x40 MSTORE DUP1 SWAP3 SWAP2 SWAP1 DUP2 DUP2 MSTORE PUSH1 0x20 ADD DUP3 DUP1 SLOAD PUSH2 0x41A SWAP1 PUSH2 0x1234 JUMP JUMPDEST DUP1 ISZERO PUSH2 0x467 JUMPI DUP1 PUSH1 0x1F LT PUSH2 0x43C JUMPI PUSH2 0x100 DUP1 DUP4 SLOAD DIV MUL DUP4 MSTORE SWAP2 PUSH1 0x20 ADD SWAP2 PUSH2 0x467 JUMP JUMPDEST DUP3 ADD SWAP2 SWAP1 PUSH1 0x0 MSTORE PUSH1 0x20 PUSH1 0x0 KECCAK256 SWAP1 JUMPDEST DUP2 SLOAD DUP2 MSTORE SWAP1 PUSH1 0x1 ADD SWAP1 PUSH1 0x20 ADD DUP1 DUP4 GT PUSH2 0x44A JUMPI DUP3 SWAP1 SUB PUSH1 0x1F AND DUP3 ADD SWAP2 JUMPDEST POP POP POP POP POP SWAP1 POP SWAP1 JUMP JUMPDEST PUSH1 0x0 DUP1 PUSH2 0x47C PUSH2 0x5B0 JUMP JUMPDEST SWAP1 POP PUSH1 0x0 PUSH2 0x48A DUP3 DUP7 PUSH2 0x529 JUMP JUMPDEST SWAP1 POP DUP4 DUP2 LT ISZERO PUSH2 0x4CF JUMPI PUSH1 0x40 MLOAD PUSH32 0x8C379A000000000000000000000000000000000000000000000000000000000 DUP2 MSTORE PUSH1 0x4 ADD PUSH2 0x4C6 SWAP1 PUSH2 0x10BA JUMP JUMPDEST PUSH1 0x40 MLOAD DUP1 SWAP2 SUB SWAP1 REVERT JUMPDEST PUSH2 0x4DC DUP3 DUP7 DUP7 DUP5 SUB PUSH2 0x5B8 JUMP JUMPDEST PUSH1 0x1 SWAP3 POP POP POP SWAP3 SWAP2 POP POP JUMP JUMPDEST PUSH1 0x0 DUP1 PUSH2 0x4F3 PUSH2 0x5B0 JUMP JUMPDEST SWAP1 POP PUSH2 0x500 DUP2 DUP6 DUP6 PUSH2 0x80F JUMP JUMPDEST PUSH1 0x1 SWAP2 POP POP SWAP3 SWAP2 POP POP JUMP JUMPDEST PUSH1 0x0 PUSH1 0x5 PUSH1 0x40 MLOAD PUSH2 0x51C SWAP2 SWAP1 PUSH2 0xF8B JUMP JUMPDEST PUSH1 0x40 MLOAD DUP1 SWAP2 SUB SWAP1 KECCAK256 SWAP1 POP SWAP1 JUMP JUMPDEST PUSH1 0x0 PUSH1 0x1 PUSH1 0x0 DUP5 PUSH20 0xFFFFFFFFFFFFFFFFFFFFFFFFFFFFFFFFFFFFFFFF AND PUSH20 0xFFFFFFFFFFFFFFFFFFFFFFFFFFFFFFFFFFFFFFFF AND DUP2 MSTORE PUSH1 0x20 ADD SWAP1 DUP2 MSTORE PUSH1 0x20 ADD PUSH1 0x0 KECCAK256 PUSH1 0x0 DUP4 PUSH20 0xFFFFFFFFFFFFFFFFFFFFFFFFFFFFFFFFFFFFFFFF AND PUSH20 0xFFFFFFFFFFFFFFFFFFFFFFFFFFFFFFFFFFFFFFFF AND DUP2 MSTORE PUSH1 0x20 ADD SWAP1 DUP2 MSTORE PUSH1 0x20 ADD PUSH1 0x0 KECCAK256 SLOAD SWAP1 POP SWAP3 SWAP2 POP POP JUMP JUMPDEST PUSH1 0x0 CALLER SWAP1 POP SWAP1 JUMP JUMPDEST PUSH1 0x0 PUSH20 0xFFFFFFFFFFFFFFFFFFFFFFFFFFFFFFFFFFFFFFFF AND DUP4 PUSH20 0xFFFFFFFFFFFFFFFFFFFFFFFFFFFFFFFFFFFFFFFF AND EQ ISZERO PUSH2 0x628 JUMPI PUSH1 0x40 MLOAD PUSH32 0x8C379A000000000000000000000000000000000000000000000000000000000 DUP2 MSTORE PUSH1 0x4 ADD PUSH2 0x61F SWAP1 PUSH2 0x109A JUMP JUMPDEST PUSH1 0x40 MLOAD DUP1 SWAP2 SUB SWAP1 REVERT JUMPDEST PUSH1 0x0 PUSH20 0xFFFFFFFFFFFFFFFFFFFFFFFFFFFFFFFFFFFFFFFF AND DUP3 PUSH20 0xFFFFFFFFFFFFFFFFFFFFFFFFFFFFFFFFFFFFFFFF AND EQ ISZERO PUSH2 0x698 JUMPI PUSH1 0x40 MLOAD PUSH32 0x8C379A000000000000000000000000000000000000000000000000000000000 DUP2 MSTORE PUSH1 0x4 ADD PUSH2 0x68F SWAP1 PUSH2 0x101A JUMP JUMPDEST PUSH1 0x40 MLOAD DUP1 SWAP2 SUB SWAP1 REVERT JUMPDEST DUP1 PUSH1 0x1 PUSH1 0x0 DUP6 PUSH20 0xFFFFFFFFFFFFFFFFFFFFFFFFFFFFFFFFFFFFFFFF AND PUSH20 0xFFFFFFFFFFFFFFFFFFFFFFFFFFFFFFFFFFFFFFFF AND DUP2 MSTORE PUSH1 0x20 ADD SWAP1 DUP2 MSTORE PUSH1 0x20 ADD PUSH1 0x0 KECCAK256 PUSH1 0x0 DUP5 PUSH20 0xFFFFFFFFFFFFFFFFFFFFFFFFFFFFFFFFFFFFFFFF AND PUSH20 0xFFFFFFFFFFFFFFFFFFFFFFFFFFFFFFFFFFFFFFFF AND DUP2 MSTORE PUSH1 0x20 ADD SWAP1 DUP2 MSTORE PUSH1 0x20 ADD PUSH1 0x0 KECCAK256 DUP2 SWAP1 SSTORE POP DUP2 PUSH20 0xFFFFFFFFFFFFFFFFFFFFFFFFFFFFFFFFFFFFFFFF AND DUP4 PUSH20 0xFFFFFFFFFFFFFFFFFFFFFFFFFFFFFFFFFFFFFFFF AND PUSH32 0x8C5BE1E5EBEC7D5BD14F71427D1E84F3DD0314C0F7B2291E5B200AC8C7C3B925 DUP4 PUSH1 0x40 MLOAD PUSH2 0x776 SWAP2 SWAP1 PUSH2 0x10DA JUMP JUMPDEST PUSH1 0x40 MLOAD DUP1 SWAP2 SUB SWAP1 LOG3 POP POP POP JUMP JUMPDEST PUSH1 0x0 PUSH2 0x78F DUP5 DUP5 PUSH2 0x529 JUMP JUMPDEST SWAP1 POP PUSH32 0xFFFFFFFFFFFFFFFFFFFFFFFFFFFFFFFFFFFFFFFFFFFFFFFFFFFFFFFFFFFFFFFF DUP2 EQ PUSH2 0x809 JUMPI DUP2 DUP2 LT ISZERO PUSH2 0x7FB JUMPI PUSH1 0x40 MLOAD PUSH32 0x8C379A000000000000000000000000000000000000000000000000000000000 DUP2 MSTORE PUSH1 0x4 ADD PUSH2 0x7F2 SWAP1 PUSH2 0x103A JUMP JUMPDEST PUSH1 0x40 MLOAD DUP1 SWAP2 SUB SWAP1 REVERT JUMPDEST PUSH2 0x808 DUP5 DUP5 DUP5 DUP5 SUB PUSH2 0x5B8 JUMP JUMPDEST JUMPDEST POP POP POP POP JUMP JUMPDEST PUSH1 0x0 PUSH20 0xFFFFFFFFFFFFFFFFFFFFFFFFFFFFFFFFFFFFFFFF AND DUP4 PUSH20 0xFFFFFFFFFFFFFFFFFFFFFFFFFFFFFFFFFFFFFFFF AND EQ ISZERO PUSH2 0x87F JUMPI PUSH1 0x40 MLOAD PUSH32 0x8C379A000000000000000000000000000000000000000000000000000000000 DUP2 MSTORE PUSH1 0x4 ADD PUSH2 0x876 SWAP1 PUSH2 0x107A JUMP JUMPDEST PUSH1 0x40 MLOAD DUP1 SWAP2 SUB SWAP1 REVERT JUMPDEST PUSH1 0x0 PUSH20 0xFFFFFFFFFFFFFFFFFFFFFFFFFFFFFFFFFFFFFFFF AND DUP3 PUSH20 0xFFFFFFFFFFFFFFFFFFFFFFFFFFFFFFFFFFFFFFFF AND EQ ISZERO PUSH2 0x8EF JUMPI PUSH1 0x40 MLOAD PUSH32 0x8C379A000000000000000000000000000000000000000000000000000000000 DUP2 MSTORE PUSH1 0x4 ADD PUSH2 0x8E6 SWAP1 PUSH2 0xFFA JUMP JUMPDEST PUSH1 0x40 MLOAD DUP1 SWAP2 SUB SWAP1 REVERT JUMPDEST PUSH2 0x8FA DUP4 DUP4 DUP4 PUSH2 0xACF JUMP JUMPDEST PUSH1 0x0 DUP1 PUSH1 0x0 DUP6 PUSH20 0xFFFFFFFFFFFFFFFFFFFFFFFFFFFFFFFFFFFFFFFF AND PUSH20 0xFFFFFFFFFFFFFFFFFFFFFFFFFFFFFFFFFFFFFFFF AND DUP2 MSTORE PUSH1 0x20 ADD SWAP1 DUP2 MSTORE PUSH1 0x20 ADD PUSH1 0x0 KECCAK256 SLOAD SWAP1 POP DUP2 DUP2 LT ISZERO PUSH2 0x980 JUMPI PUSH1 0x40 MLOAD PUSH32 0x8C379A000000000000000000000000000000000000000000000000000000000 DUP2 MSTORE PUSH1 0x4 ADD PUSH2 0x977 SWAP1 PUSH2 0x105A JUMP JUMPDEST PUSH1 0x40 MLOAD DUP1 SWAP2 SUB SWAP1 REVERT JUMPDEST DUP2 DUP2 SUB PUSH1 0x0 DUP1 DUP7 PUSH20 0xFFFFFFFFFFFFFFFFFFFFFFFFFFFFFFFFFFFFFFFF AND PUSH20 0xFFFFFFFFFFFFFFFFFFFFFFFFFFFFFFFFFFFFFFFF AND DUP2 MSTORE PUSH1 0x20 ADD SWAP1 DUP2 MSTORE PUSH1 0x20 ADD PUSH1 0x0 KECCAK256 DUP2 SWAP1 SSTORE POP DUP2 PUSH1 0x0 DUP1 DUP6 PUSH20 0xFFFFFFFFFFFFFFFFFFFFFFFFFFFFFFFFFFFFFFFF AND PUSH20 0xFFFFFFFFFFFFFFFFFFFFFFFFFFFFFFFFFFFFFFFF AND DUP2 MSTORE PUSH1 0x20 ADD SWAP1 DUP2 MSTORE PUSH1 0x20 ADD PUSH1 0x0 KECCAK256 PUSH1 0x0 DUP3 DUP3 SLOAD ADD SWAP3 POP POP DUP2 SWAP1 SSTORE POP DUP3 PUSH20 0xFFFFFFFFFFFFFFFFFFFFFFFFFFFFFFFFFFFFFFFF AND DUP5 PUSH20 0xFFFFFFFFFFFFFFFFFFFFFFFFFFFFFFFFFFFFFFFF AND PUSH32 0xDDF252AD1BE2C89B69C2B068FC378DAA952BA7F163C4A11628F55A4DF523B3EF DUP5 PUSH1 0x40 MLOAD PUSH2 0xA6E SWAP2 SWAP1 PUSH2 0x10DA JUMP JUMPDEST PUSH1 0x40 MLOAD DUP1 SWAP2 SUB SWAP1 LOG3 PUSH2 0xA81 DUP5 DUP5 DUP5 PUSH2 0xAD4 JUMP JUMPDEST POP POP POP POP JUMP JUMPDEST PUSH1 0x0 DUP1 PUSH1 0x0 DUP4 PUSH20 0xFFFFFFFFFFFFFFFFFFFFFFFFFFFFFFFFFFFFFFFF AND PUSH20 0xFFFFFFFFFFFFFFFFFFFFFFFFFFFFFFFFFFFFFFFF AND DUP2 MSTORE PUSH1 0x20 ADD SWAP1 DUP2 MSTORE PUSH1 0x20 ADD PUSH1 0x0 KECCAK256 SLOAD SWAP1 POP SWAP2 SWAP1 POP JUMP JUMPDEST POP POP POP JUMP JUMPDEST POP POP POP JUMP JUMPDEST PUSH1 0x0 DUP2 CALLDATALOAD SWAP1 POP PUSH2 0xAE8 DUP2 PUSH2 0x12D5 JUMP JUMPDEST SWAP3 SWAP2 POP POP JUMP JUMPDEST PUSH1 0x0 DUP2 CALLDATALOAD SWAP1 POP PUSH2 0xAFD DUP2 PUSH2 0x12EC JUMP JUMPDEST SWAP3 SWAP2 POP POP JUMP JUMPDEST PUSH1 0x0 PUSH1 0x20 DUP3 DUP5 SUB SLT ISZERO PUSH2 0xB15 JUMPI PUSH1 0x0 DUP1 REVERT JUMPDEST PUSH1 0x0 PUSH2 0xB23 DUP5 DUP3 DUP6 ADD PUSH2 0xAD9 JUMP JUMPDEST SWAP2 POP POP SWAP3 SWAP2 POP POP JUMP JUMPDEST PUSH1 0x0 DUP1 PUSH1 0x40 DUP4 DUP6 SUB SLT ISZERO PUSH2 0xB3F JUMPI PUSH1 0x0 DUP1 REVERT JUMPDEST PUSH1 0x0 PUSH2 0xB4D DUP6 DUP3 DUP7 ADD PUSH2 0xAD9 JUMP JUMPDEST SWAP3 POP POP PUSH1 0x20 PUSH2 0xB5E DUP6 DUP3 DUP7 ADD PUSH2 0xAD9 JUMP JUMPDEST SWAP2 POP POP SWAP3 POP SWAP3 SWAP1 POP JUMP JUMPDEST PUSH1 0x0 DUP1 PUSH1 0x0 PUSH1 0x60 DUP5 DUP7 SUB SLT ISZERO PUSH2 0xB7D JUMPI PUSH1 0x0 DUP1 REVERT JUMPDEST PUSH1 0x0 PUSH2 0xB8B DUP7 DUP3 DUP8 ADD PUSH2 0xAD9 JUMP JUMPDEST SWAP4 POP POP PUSH1 0x20 PUSH2 0xB9C DUP7 DUP3 DUP8 ADD PUSH2 0xAD9 JUMP JUMPDEST SWAP3 POP POP PUSH1 0x40 PUSH2 0xBAD DUP7 DUP3 DUP8 ADD PUSH2 0xAEE JUMP JUMPDEST SWAP2 POP POP SWAP3 POP SWAP3 POP SWAP3 JUMP JUMPDEST PUSH1 0x0 DUP1 PUSH1 0x40 DUP4 DUP6 SUB SLT ISZERO PUSH2 0xBCA JUMPI PUSH1 0x0 DUP1 REVERT JUMPDEST PUSH1 0x0 PUSH2 0xBD8 DUP6 DUP3 DUP7 ADD PUSH2 0xAD9 JUMP JUMPDEST SWAP3 POP POP PUSH1 0x20 PUSH2 0xBE9 DUP6 DUP3 DUP7 ADD PUSH2 0xAEE JUMP JUMPDEST SWAP2 POP POP SWAP3 POP SWAP3 SWAP1 POP JUMP JUMPDEST PUSH2 0xBFC DUP2 PUSH2 0x11B4 JUMP JUMPDEST DUP3 MSTORE POP POP JUMP JUMPDEST PUSH2 0xC0B DUP2 PUSH2 0x11C0 JUMP JUMPDEST DUP3 MSTORE POP POP JUMP JUMPDEST PUSH1 0x0 DUP2 SLOAD PUSH2 0xC1E DUP2 PUSH2 0x1234 JUMP JUMPDEST PUSH2 0xC28 DUP2 DUP7 PUSH2 0x1130 JUMP JUMPDEST SWAP5 POP PUSH1 0x1 DUP3 AND PUSH1 0x0 DUP2 EQ PUSH2 0xC43 JUMPI PUSH1 0x1 DUP2 EQ PUSH2 0xC54 JUMPI PUSH2 0xC87 JUMP JUMPDEST PUSH1 0xFF NOT DUP4 AND DUP7 MSTORE DUP2 DUP7 ADD SWAP4 POP PUSH2 0xC87 JUMP JUMPDEST PUSH2 0xC5D DUP6 PUSH2 0x1110 JUMP JUMPDEST PUSH1 0x0 JUMPDEST DUP4 DUP2 LT ISZERO PUSH2 0xC7F JUMPI DUP2 SLOAD DUP2 DUP10 ADD MSTORE PUSH1 0x1 DUP3 ADD SWAP2 POP PUSH1 0x20 DUP2 ADD SWAP1 POP PUSH2 0xC60 JUMP JUMPDEST DUP4 DUP9 ADD SWAP6 POP POP POP JUMPDEST POP POP POP SWAP3 SWAP2 POP POP JUMP JUMPDEST PUSH1 0x0 PUSH2 0xC9B DUP3 PUSH2 0x1125 JUMP JUMPDEST PUSH2 0xCA5 DUP2 DUP6 PUSH2 0x113B JUMP JUMPDEST SWAP4 POP PUSH2 0xCB5 DUP2 DUP6 PUSH1 0x20 DUP7 ADD PUSH2 0x1201 JUMP JUMPDEST PUSH2 0xCBE DUP2 PUSH2 0x12C4 JUMP JUMPDEST DUP5 ADD SWAP2 POP POP SWAP3 SWAP2 POP POP JUMP JUMPDEST PUSH1 0x0 PUSH2 0xCD6 PUSH1 0x23 DUP4 PUSH2 0x113B JUMP JUMPDEST SWAP2 POP PUSH32 0x45524332303A207472616E7366657220746F20746865207A65726F2061646472 PUSH1 0x0 DUP4 ADD MSTORE PUSH32 0x6573730000000000000000000000000000000000000000000000000000000000 PUSH1 0x20 DUP4 ADD MSTORE PUSH1 0x40 DUP3 ADD SWAP1 POP SWAP2 SWAP1 POP JUMP JUMPDEST PUSH1 0x0 PUSH2 0xD3C PUSH1 0x22 DUP4 PUSH2 0x113B JUMP JUMPDEST SWAP2 POP PUSH32 0x45524332303A20617070726F766520746F20746865207A65726F206164647265 PUSH1 0x0 DUP4 ADD MSTORE PUSH32 0x7373000000000000000000000000000000000000000000000000000000000000 PUSH1 0x20 DUP4 ADD MSTORE PUSH1 0x40 DUP3 ADD SWAP1 POP SWAP2 SWAP1 POP JUMP JUMPDEST PUSH1 0x0 PUSH2 0xDA2 PUSH1 0x1D DUP4 PUSH2 0x113B JUMP JUMPDEST SWAP2 POP PUSH32 0x45524332303A20696E73756666696369656E7420616C6C6F77616E6365000000 PUSH1 0x0 DUP4 ADD MSTORE PUSH1 0x20 DUP3 ADD SWAP1 POP SWAP2 SWAP1 POP JUMP JUMPDEST PUSH1 0x0 PUSH2 0xDE2 PUSH1 0x26 DUP4 PUSH2 0x113B JUMP JUMPDEST SWAP2 POP PUSH32 0x45524332303A207472616E7366657220616D6F756E7420657863656564732062 PUSH1 0x0 DUP4 ADD MSTORE PUSH32 0x616C616E63650000000000000000000000000000000000000000000000000000 PUSH1 0x20 DUP4 ADD MSTORE PUSH1 0x40 DUP3 ADD SWAP1 POP SWAP2 SWAP1 POP JUMP JUMPDEST PUSH1 0x0 PUSH2 0xE48 PUSH1 0x25 DUP4 PUSH2 0x113B JUMP JUMPDEST SWAP2 POP PUSH32 0x45524332303A207472616E736665722066726F6D20746865207A65726F206164 PUSH1 0x0 DUP4 ADD MSTORE PUSH32 0x6472657373000000000000000000000000000000000000000000000000000000 PUSH1 0x20 DUP4 ADD MSTORE PUSH1 0x40 DUP3 ADD SWAP1 POP SWAP2 SWAP1 POP JUMP JUMPDEST PUSH1 0x0 PUSH2 0xEAE PUSH1 0x24 DUP4 PUSH2 0x113B JUMP JUMPDEST SWAP2 POP PUSH32 0x45524332303A20617070726F76652066726F6D20746865207A65726F20616464 PUSH1 0x0 DUP4 ADD MSTORE PUSH32 0x7265737300000000000000000000000000000000000000000000000000000000 PUSH1 0x20 DUP4 ADD MSTORE PUSH1 0x40 DUP3 ADD SWAP1 POP SWAP2 SWAP1 POP JUMP JUMPDEST PUSH1 0x0 PUSH2 0xF14 PUSH1 0x25 DUP4 PUSH2 0x113B JUMP JUMPDEST SWAP2 POP PUSH32 0x45524332303A2064656372656173656420616C6C6F77616E63652062656C6F77 PUSH1 0x0 DUP4 ADD MSTORE PUSH32 0x207A65726F000000000000000000000000000000000000000000000000000000 PUSH1 0x20 DUP4 ADD MSTORE PUSH1 0x40 DUP3 ADD SWAP1 POP SWAP2 SWAP1 POP JUMP JUMPDEST PUSH2 0xF76 DUP2 PUSH2 0x11EA JUMP JUMPDEST DUP3 MSTORE POP POP JUMP JUMPDEST PUSH2 0xF85 DUP2 PUSH2 0x11F4 JUMP JUMPDEST DUP3 MSTORE POP POP JUMP JUMPDEST PUSH1 0x0 PUSH2 0xF97 DUP3 DUP5 PUSH2 0xC11 JUMP JUMPDEST SWAP2 POP DUP2 SWAP1 POP SWAP3 SWAP2 POP POP JUMP JUMPDEST PUSH1 0x0 PUSH1 0x20 DUP3 ADD SWAP1 POP PUSH2 0xFB7 PUSH1 0x0 DUP4 ADD DUP5 PUSH2 0xBF3 JUMP JUMPDEST SWAP3 SWAP2 POP POP JUMP JUMPDEST PUSH1 0x0 PUSH1 0x20 DUP3 ADD SWAP1 POP PUSH2 0xFD2 PUSH1 0x0 DUP4 ADD DUP5 PUSH2 0xC02 JUMP JUMPDEST SWAP3 SWAP2 POP POP JUMP JUMPDEST PUSH1 0x0 PUSH1 0x20 DUP3 ADD SWAP1 POP DUP2 DUP2 SUB PUSH1 0x0 DUP4 ADD MSTORE PUSH2 0xFF2 DUP2 DUP5 PUSH2 0xC90 JUMP JUMPDEST SWAP1 POP SWAP3 SWAP2 POP POP JUMP JUMPDEST PUSH1 0x0 PUSH1 0x20 DUP3 ADD SWAP1 POP DUP2 DUP2 SUB PUSH1 0x0 DUP4 ADD MSTORE PUSH2 0x1013 DUP2 PUSH2 0xCC9 JUMP JUMPDEST SWAP1 POP SWAP2 SWAP1 POP JUMP JUMPDEST PUSH1 0x0 PUSH1 0x20 DUP3 ADD SWAP1 POP DUP2 DUP2 SUB PUSH1 0x0 DUP4 ADD MSTORE PUSH2 0x1033 DUP2 PUSH2 0xD2F JUMP JUMPDEST SWAP1 POP SWAP2 SWAP1 POP JUMP JUMPDEST PUSH1 0x0 PUSH1 0x20 DUP3 ADD SWAP1 POP DUP2 DUP2 SUB PUSH1 0x0 DUP4 ADD MSTORE PUSH2 0x1053 DUP2 PUSH2 0xD95 JUMP JUMPDEST SWAP1 POP SWAP2 SWAP1 POP JUMP JUMPDEST PUSH1 0x0 PUSH1 0x20 DUP3 ADD SWAP1 POP DUP2 DUP2 SUB PUSH1 0x0 DUP4 ADD MSTORE PUSH2 0x1073 DUP2 PUSH2 0xDD5 JUMP JUMPDEST SWAP1 POP SWAP2 SWAP1 POP JUMP JUMPDEST PUSH1 0x0 PUSH1 0x20 DUP3 ADD SWAP1 POP DUP2 DUP2 SUB PUSH1 0x0 DUP4 ADD MSTORE PUSH2 0x1093 DUP2 PUSH2 0xE3B JUMP JUMPDEST SWAP1 POP SWAP2 SWAP1 POP JUMP JUMPDEST PUSH1 0x0 PUSH1 0x20 DUP3 ADD SWAP1 POP DUP2 DUP2 SUB PUSH1 0x0 DUP4 ADD MSTORE PUSH2 0x10B3 DUP2 PUSH2 0xEA1 JUMP JUMPDEST SWAP1 POP SWAP2 SWAP1 POP JUMP JUMPDEST PUSH1 0x0 PUSH1 0x20 DUP3 ADD SWAP1 POP DUP2 DUP2 SUB PUSH1 0x0 DUP4 ADD MSTORE PUSH2 0x10D3 DUP2 PUSH2 0xF07 JUMP JUMPDEST SWAP1 POP SWAP2 SWAP1 POP JUMP JUMPDEST PUSH1 0x0 PUSH1 0x20 DUP3 ADD SWAP1 POP PUSH2 0x10EF PUSH1 0x0 DUP4 ADD DUP5 PUSH2 0xF6D JUMP JUMPDEST SWAP3 SWAP2 POP POP JUMP JUMPDEST PUSH1 0x0 PUSH1 0x20 DUP3 ADD SWAP1 POP PUSH2 0x110A PUSH1 0x0 DUP4 ADD DUP5 PUSH2 0xF7C JUMP JUMPDEST SWAP3 SWAP2 POP POP JUMP JUMPDEST PUSH1 0x0 DUP2 SWAP1 POP DUP2 PUSH1 0x0 MSTORE PUSH1 0x20 PUSH1 0x0 KECCAK256 SWAP1 POP SWAP2 SWAP1 POP JUMP JUMPDEST PUSH1 0x0 DUP2 MLOAD SWAP1 POP SWAP2 SWAP1 POP JUMP JUMPDEST PUSH1 0x0 DUP2 SWAP1 POP SWAP3 SWAP2 POP POP JUMP JUMPDEST PUSH1 0x0 DUP3 DUP3 MSTORE PUSH1 0x20 DUP3 ADD SWAP1 POP SWAP3 SWAP2 POP POP JUMP JUMPDEST PUSH1 0x0 PUSH2 0x1157 DUP3 PUSH2 0x11EA JUMP JUMPDEST SWAP2 POP PUSH2 0x1162 DUP4 PUSH2 0x11EA JUMP JUMPDEST SWAP3 POP DUP3 PUSH32 0xFFFFFFFFFFFFFFFFFFFFFFFFFFFFFFFFFFFFFFFFFFFFFFFFFFFFFFFFFFFFFFFF SUB DUP3 GT ISZERO PUSH2 0x1197 JUMPI PUSH2 0x1196 PUSH2 0x1266 JUMP JUMPDEST JUMPDEST DUP3 DUP3 ADD SWAP1 POP SWAP3 SWAP2 POP POP JUMP JUMPDEST PUSH1 0x0 PUSH2 0x11AD DUP3 PUSH2 0x11CA JUMP JUMPDEST SWAP1 POP SWAP2 SWAP1 POP JUMP JUMPDEST PUSH1 0x0 DUP2 ISZERO ISZERO SWAP1 POP SWAP2 SWAP1 POP JUMP JUMPDEST PUSH1 0x0 DUP2 SWAP1 POP SWAP2 SWAP1 POP JUMP JUMPDEST PUSH1 0x0 PUSH20 0xFFFFFFFFFFFFFFFFFFFFFFFFFFFFFFFFFFFFFFFF DUP3 AND SWAP1 POP SWAP2 SWAP1 POP JUMP JUMPDEST PUSH1 0x0 DUP2 SWAP1 POP SWAP2 SWAP1 POP JUMP JUMPDEST PUSH1 0x0 PUSH1 0xFF DUP3 AND SWAP1 POP SWAP2 SWAP1 POP JUMP JUMPDEST PUSH1 0x0 JUMPDEST DUP4 DUP2 LT ISZERO PUSH2 0x121F JUMPI DUP1 DUP3 ADD MLOAD DUP2 DUP5 ADD MSTORE PUSH1 0x20 DUP2 ADD SWAP1 POP PUSH2 0x1204 JUMP JUMPDEST DUP4 DUP2 GT ISZERO PUSH2 0x122E JUMPI PUSH1 0x0 DUP5 DUP5 ADD MSTORE JUMPDEST POP POP POP POP JUMP JUMPDEST PUSH1 0x0 PUSH1 0x2 DUP3 DIV SWAP1 POP PUSH1 0x1 DUP3 AND DUP1 PUSH2 0x124C JUMPI PUSH1 0x7F DUP3 AND SWAP2 POP JUMPDEST PUSH1 0x20 DUP3 LT DUP2 EQ ISZERO PUSH2 0x1260 JUMPI PUSH2 0x125F PUSH2 0x1295 JUMP JUMPDEST JUMPDEST POP SWAP2 SWAP1 POP JUMP JUMPDEST PUSH32 0x4E487B7100000000000000000000000000000000000000000000000000000000 PUSH1 0x0 MSTORE PUSH1 0x11 PUSH1 0x4 MSTORE PUSH1 0x24 PUSH1 0x0 REVERT JUMPDEST PUSH32 0x4E487B7100000000000000000000000000000000000000000000000000000000 PUSH1 0x0 MSTORE PUSH1 0x22 PUSH1 0x4 MSTORE PUSH1 0x24 PUSH1 0x0 REVERT JUMPDEST PUSH1 0x0 PUSH1 0x1F NOT PUSH1 0x1F DUP4 ADD AND SWAP1 POP SWAP2 SWAP1 POP JUMP JUMPDEST PUSH2 0x12DE DUP2 PUSH2 0x11A2 JUMP JUMPDEST DUP2 EQ PUSH2 0x12E9 JUMPI PUSH1 0x0 DUP1 REVERT JUMPDEST POP JUMP JUMPDEST PUSH2 0x12F5 DUP2 PUSH2 0x11EA JUMP JUMPDEST DUP2 EQ PUSH2 0x1300 JUMPI PUSH1 0x0 DUP1 REVERT JUMPDEST POP JUMP INVALID LOG2 PUSH5 0x6970667358 0x22 SLT KECCAK256 LOG0 0xA8 SDIV PUSH24 0xB786ADEFFFB380AF4E6A666C4FC9A50B240F044C070180D3 0x5F GASPRICE CODESIZE 0xC9 PUSH5 0x736F6C6343 STOP ADDMOD STOP STOP CALLER PUSH10 0x56424F5277304B47676F COINBASE COINBASE COINBASE COINBASE 0x4E MSTORE8 SSTORE PUSH9 0x455567414141506F41 COINBASE COINBASE CHAINID POP NUMBER COINBASE MSIZE COINBASE COINBASE COINBASE TIMESTAMP PUSH12 0x6E4E4E504141414143584249 JUMPI PC 0x4D COINBASE COINBASE COINBASE PUSH20 0x544141414C457745416D7077594141414141584E MSTORE8 MSTORE ADDRESS 0x49 COINBASE PUSH19 0x733463365141414141526E5155314241414378 PUSH11 0x7776385951554141417270 MSTORE8 SSTORE MSTORE TIMESTAMP JUMP 0x48 PUSH8 0x42376430766A4E35 CHAINID 0x48 PUSH20 0x667834594B34354179475332567854546942416D MSTORE TIMESTAMP JUMP SSTORE TIMESTAMP MSTORE8 MSTORE PUSH26 0x554241515A43546D4549416F4D694A4A6A44454F54576B594241 ADDRESS GAS SSTORE CHAINID JUMP SSTORE SELFBALANCE SLOAD 0x4F PUSH13 0x6232446C4E78647A6E5832382F 0x2B 0x2B 0x4E 0x48 PUSH21 0x30743139647666354E393935765A496E33584C6951 PUSH20 0x4A375A3537357A572B6D4E514141414141414141 COINBASE COINBASE COINBASE COINBASE COINBASE COINBASE COINBASE COINBASE COINBASE COINBASE COINBASE COINBASE COINBASE COINBASE COINBASE COINBASE COINBASE COINBASE COINBASE COINBASE COINBASE COINBASE COINBASE COINBASE COINBASE COINBASE COINBASE COINBASE COINBASE COINBASE COINBASE COINBASE COINBASE COINBASE COINBASE COINBASE COINBASE COINBASE COINBASE COINBASE COINBASE COINBASE COINBASE COINBASE COINBASE MSIZE ADDRESS JUMP 0x4D POP POP CALLDATACOPY CALLDATACOPY 0x2B PUSH20 0x41476C2F616B4235516B64426942304749445159 MLOAD TIMESTAMP NUMBER PUSH9 0x774549485159676442 PUSH10 0x4130474541516F634243 TIMESTAMP ADDRESS SELFBALANCE 0x49 0x48 MLOAD MSIZE PUSH8 0x4E426841454B4841 MLOAD PUSH8 0x6442694230474944 MLOAD MSIZE MLOAD TIMESTAMP NUMBER PUSH9 0x774549485159676442 PUSH10 0x4130474541516F634243 TIMESTAMP ADDRESS SELFBALANCE 0x49 0x48 MLOAD MSIZE PUSH24 0x4E4F7464792B3830746F7A6632307332662F2B4D3330652B 0x2F PUSH21 0x2F662F763533395050442F375636454F4230463974 CALLDATACOPY PUSH7 0x4C664768755358 PUSH24 0x414A6676377A39382B767264332F35664666466D784D2F36 SELFBALANCE PUSH27 0x57582F2B533275586E6A762B66302F6F435436662F414B34763966 PUSH2 0x3373 0x2B 0x4E CODECOPY MSTORE 0x49 CALLDATASIZE PUSH18 0x355666424A6C78485A31314A666245662B38 PUSH15 0x34612B42304E6D4D4F66365858352F 0x2B PUSH15 0x746A762F4C442F353133662F566441 CALLDATASIZE SELFBALANCE PUSH26 0x4877364E2B527672623334702B6959544F39736C332F75767654 PUSH27 0x2F50492F32645734337A457A7262625237707239356F625866484B 0x48 CODECOPY 0x4F MLOAD PUSH18 0x635032537552555436722B50642B33492F2B PUSH17 0x754450514F6A304A617634325475525437 CALLDATACOPY 0x48 CALLER 0x2F CALLDATALOAD 0x4F CODESIZE COINBASE PUSH22 0x77425A5A2B5A63582B7A552F322F33797463544B6830 CALLDATACOPY PUSH5 0x4D36612B39 CALLER PUSH5 0x6F48583536 CODESIZE PUSH4 0x57647751 PUSH18 0x654742502F755A2F7652767A564E37336D4D ADDRESS 0x4B PUSH12 0x6C302F6B453730576E787769 PUSH5 0x65684A3570 PUSH23 0x4A583332684D684535646566616571547843707A68542B MLOAD 0x4E NUMBER PUSH17 0x37367378756378334D4378433530784A50 0x4B TIMESTAMP MSIZE PUSH25 0x6336347867346471457A6C6B522B343850686E72554C6E6648 PUSH12 0x4F2F7467712F46435A307835 0x4B JUMPI PUSH2 0x6750 PUSH7 0x4A435A317A5A49 PUSH27 0x2F4943634A435A327A58337876692B37725147567357357762594B PUSH10 0x7430794F3635346C4E34 PUSH16 0x554D5548395746447045525066663446 MSTORE8 JUMP ADDRESS PUSH14 0x4F567474364B4544724D737A4255 PUSH5 0x3159554F68 CODESIZE BALANCE PC MSTORE TIMESTAMP SSTORE PUSH11 0x6444677332324D4C727341 0x4C 0x48 MSIZE CALLVALUE PUSH18 0x75414976644467714933717833584A436879 PUSH4 0x70746967 PUSH15 0x644869534B792B31536F514F54314A PUSH20 0x2B6935304F453668315865337157356172674865 0x2B PUSH3 0x527454 DIFFICULTY PUSH2 0x4A5A 0x4F MSTORE CALLDATASIZE CALLDATALOAD PUSH21 0x6E703056492B726A53615848352B75714B35414B46 PUSH23 0x576B4C662B376C746C635366344B2B384F4931716F7836 SLOAD PUSH3 0x45536E PUSH21 0x4E77336E7338386D6D56684B74486E2B4B57524650 PUSH16 0x46357A73367030767733337A52327566 PUSH23 0x7448626E687A614D673638304E5749584F6F764C4B4438 0x48 PUSH15 0x3539486B4F2F70425169647330766B PUSH10 0x5833335A697576794D4B PUSH12 0x30446D2F335A335776762B71 PUSH13 0x5A5A4679514B457A7358632F6E PUSH2 0x617A PUSH13 0x646C524966665A494775617578 NUMBER PUSH9 0x304D53653062336171 PUSH26 0x367778465A6E42746C4E62347A516D643573737576387666316A PUSH8 0x6D6435637032336D CALLER PUSH3 0x306F76 MLOAD JUMPI MSIZE GASLIMIT MSTORE PUSH15 0x7139335275677358306230544F505A SELFBALANCE PUSH12 0x4A6E4E61727369532F794330 PUSH23 0x6F724D623958316F4A516F6354374E31744A516764546C DIFFICULTY PUSH13 0x6558715266772B68737A6F5649 PUSH9 0x45366E4B4C43745066 0x2B PC PUSH18 0x7441364B784F696442724C436F4B48593654 PUSH2 0x6276 CHAINID 0x4F NUMBER PUSH10 0x75796950434A6E525771 PUSH7 0x64585041767432 MSTORE PUSH4 0x3671394E CODECOPY CALLDATASIZE GASLIMIT PC ORIGIN COINBASE PUSH11 0x5368737971396E37575737 0x2B PUSH6 0x6D376E434B53 CALLDATALOAD PUSH5 0x6231347063 PUSH25 0x5451544F7176522B335647743739726C51696431656A356676 GASLIMIT PUSH20 0x77685537456B766F4C4E384C722F523965757164 JUMPI CALLDATASIZE ADDRESS PUSH2 0x6F62 0x4E CODESIZE JUMP ORIGIN 0x2B ADDRESS PUSH3 0x6D556B 0x4C CALLER PUSH10 0x2F6E4E425A726F7A6D50 SLOAD CODECOPY JUMPI 0x4B CALLER PUSH16 0x4D6C74425A6E6B7A586A655A62536567 PUSH20 0x7A3757336A4F5A62537567737838757637302F62 PC ORIGIN CALLER PUSH5 0x796B68652B 0x4F CALLDATALOAD CALLER PUSH16 0x584E784354796A656138795A53392B52 0x4C PC MLOAD PUSH22 0x5A6845667632393172554272704A36757346355A6548 PUSH21 0x3668757461376B597376435566535A307A69344C62 PUSH9 0x6E4665392F6D6D6C48 CODESIZE 0x2B CALLDATASIZE 0x2F PUSH2 0x4349 SLOAD 0x4F CALLVALUE PUSH23 0x4C34374F5858706F57333375384E542B52666639524749 PC MSTORE 0x4F JUMP PUSH26 0x6E7779504651695879674B3536467A704D6C364D76505433486E CALLER PUSH7 0x494B676365416B MSIZE PUSH7 0x516D6552376439 CALLVALUE PUSH9 0x7A2F66756846307037 PUSH21 0x6B63656145444A52596C3945314C544A7434504A58 0x2F CALLER CALLER PUSH24 0x53654F394850693069492F6A4F70304E47486B4C66744D54 JUMPI CODESIZE CALLVALUE CALLDATASIZE PUSH26 0x4873774C62344E4E317738544F72586C47586B656F51312B5837 PUSH23 0x5171536C685A3864624E7351676441724B555644666644 0x48 ADDRESS JUMP POP ADDRESS PUSH16 0x6F564F485566785951716547784A3349 TIMESTAMP 0x2F CODESIZE PUSH22 0x66687968303763737467337739746C46435A332B5A4E MSTORE 0x4F CALLVALUE DIFFICULTY PUSH13 0x375865414C4554723979434C62 PUSH23 0x5A2B6D794533527A30546F624C66456E63734F45376652 0x2B CODECOPY PUSH26 0x457A6E5A4A7A496E372F70365265346D457A766249587652696C PUSH25 0x7475433266477354324D3369746A5247643733506A77306474 PUSH13 0x6D634C50643551662F4C6E584F DIFFICULTY 0x2B PUSH9 0x737A304F4472733434 MSTORE PUSH26 0x36672B2F75767A78616F444D44574A6A513655642B4365535455 ORIGIN CODESIZE PUSH10 0x775766424C7446626B54 0x2B MSTORE ADDRESS 0x4F PUSH15 0x584848374D30526538386E675A6845 CALLVALUE 0x4E PUSH4 0x2F513561 PUSH27 0x373733724F7878696A2F4F36465453343746757662324E4C326652 CALLER PUSH11 0x426537784755516B2B6F2F PUSH22 0x626E3078337467394F364E5232634B764D2B36313938 0x4F SSTORE MSIZE PUSH9 0x324165512B694D495A GASLIMIT PUSH15 0x39743776696A736E6F544F57544F63 0x48 0x48 0x4E ORIGIN CHAINID PUSH27 0x6E67532B6275665464644D44554C6F6A436D37384C493650386855 PC PUSH22 0x694D4C5650355464795573325A4368397955557A7832 PUSH16 0x554D556A31336F4D4373637539446873 0x4D MSTORE PUSH6 0x6349484F5876 PUSH5 0x746B446576 0x4E PUSH14 0x322B526E6E2B6A43774C64486E58 POP PUSH4 0x644A4679 0x48 ADDRESS SLOAD GAS PUSH22 0x76394E306D682B394E7633523565697673306E4E6A2F MLOAD 0x4A 0x49 CALLDATACOPY 0x48 PUSH15 0x5076636839366B4C6E6A7A4B613554 0x2F PUSH24 0x6641344F613777352F664D45662B58462F63394C39586557 CALLDATALOAD GAS PUSH5 0x616A726236 PUSH25 0x39394C6E47516A64425A33634954547A394E3934346B2B6234 PC PUSH13 0x4F32315642322F41765448392B CALLER PUSH3 0x4F5968 PUSH27 0x6E4D31394E2F506B3730337666566557393970504F73657545304C PUSH14 0x597244484D775663393443475033 DIFFICULTY PUSH17 0x666E78413679354849452F76757A565A4F PUSH17 0x7643647677416A644A5A72643265366361 PC PUSH2 0x5563 PUSH26 0x5A776E653841436C306C69387239586C6B57476B716E366C3778 PUSH25 0x7470684D3571354E4663745A453954786736486457467A7572 0x4D PUSH20 0x566653365864316F624E61655179586339617279 0x4B PUSH11 0x653451713830466D396244 PUSH11 0x5A68763338793544494F7A PUSH24 0x2B577569735236584862746B4333426D687378377A335767 JUMP GAS 0x4B PUSH5 0x635A347479 MLOAD PUSH14 0x64394B6C3241324E6E3058656973 PUSH27 0x2F785354415764375838584F75755657303472534F67647262344C PUSH15 0x665771394B5A6252364F3630466D76 0x2B JUMP NUMBER 0x4C NUMBER PUSH10 0x342F33336F68644E6176 PUSH26 0x766630484B2F564361477A6667392B6253554948553777344A2B PUSH21 0x68506B517A5134496E6657377639664B3647546C58 PUSH6 0x687745546B4F PUSH22 0x774E4368347377645963426D4C72444149514F783668 ADDRESS PUSH21 0x5A505134526843587A756873333464625453705175 PUSH10 0x7358306437784B73514F PUSH22 0x746E524638376F624E6569627A366C637462534F6973 JUMP 0x2B PUSH5 0x336D50564B CALLDATASIZE 0x4B PUSH25 0x58675375494839504A74564E435A3331796F4B4A702B305949 PUSH15 0x6656493446647674484B4D36484249 PUSH3 0x694B74 0x4F 0x4A PUSH16 0x4C485836547538567A5A316C466E5A79 JUMPI 0x49 CALLER MSTORE JUMPI 0x4B CALLVALUE 0x2F SLOAD PUSH19 0x7233567975726B576D6968737A714A2F4D3150 JUMPI PUSH13 0x6B646E576A3764494E56794853 CODECOPY CODESIZE PUSH12 0x6765485231624C5853574B32 CODECOPY PUSH27 0x5A6545746F56636E64495A303563583955667A74635A3656373931 PUSH21 0x7652413646354D525049466E566233617272665447 0x4E GASLIMIT PUSH17 0x4C362B61586E6C7043727A5351524B4C79 PUSH23 0x507A547036686839413558554C4F73635A5A52632B6F33 PUSH5 0x6C4E6F6976 MSTORE ORIGIN PUSH3 0x565351 PUSH21 0x3847327A446C6665625A36633845504E394163766A DIFFICULTY CALLVALUE 0x2B CALLDATACOPY PUSH4 0x616A3052 0x2B PUSH18 0x596C6F7372506D69764B6C4C327A45643247 SELFBALANCE SLOAD PUSH10 0x72446D2B444654716331 PUSH6 0x3376576D2B45 DIFFICULTY PUSH14 0x655252326F64505661624352334F PUSH16 0x7350525049514F69386F69334A306657 PUSH16 0x2B45446F766176646C364A585259524D PUSH6 0x6A6551676446 PUSH21 0x48786142354368394E3050707148304F45304F352B ORIGIN CALLER PUSH8 0x6B6454704B52764D POP PUSH15 0x356B634A485936544B58766E333831 PUSH15 0x516F666A66504E46562B2B636E3054 PUSH16 0x384353374F31322B764849636F634E52 NUMBER PUSH3 0x7A496C 0x48 ADDRESS PUSH14 0x64446773552F564D325973524F73 PUSH24 0x532B6463666C666C6566706A5149584C7253703658463477 CODESIZE PUSH9 0x41364A50434E356765 PUSH7 0x6C787845365978 PUSH20 0x67386E41344A4F504B4E44335439654B52683941 GAS SSTORE 0x2B SELFBALANCE CHAINID PUSH21 0x7963524F75504A632F4B4D354A33636262344D516D PUSH4 0x73743739 PUSH21 0x37667576326D69457A686A6D783265467472576568 PUSH5 0x43704C3345 PC PUSH6 0x6B486C504952 0x4F PC MSTORE PUSH15 0x4673326339302F5842435A3261456E PUSH4 0x6948326A TIMESTAMP CALLDATACOPY MSTORE8 MSTORE NUMBER PUSH17 0x3562357A624E4276347366522B6A554950 COINBASE SLOAD NUMBER GAS ORIGIN 0x2B NUMBER PC PUSH24 0x685171645039333663376B45542B454B45546A2B794A2F33 PUSH6 0x54394E436D30 JUMPI ORIGIN 0x4D PUSH25 0x4536322B3367386F526230386874394434336F624E644D6C4C POP 0x49 CALLER PUSH7 0x434875444E736E SSTORE MLOAD 0x4F PUSH17 0x733168373133393148597075564C4A3354 JUMPI 0x49 0x2F 0x48 PUSH14 0x6B35677A48582F7736364F665754 PUSH14 0x68637A357A754C4D454F2F2B7A66 TIMESTAMP 0x4C PUSH26 0x50466F662F4633516D2F545577342B76503278416163364D6777 GASLIMIT 0x49 0x48 MLOAD MSIZE PUSH8 0x6442694130474541 MLOAD PUSH16 0x63424342304749485159674E42684145 0x4B 0x48 COINBASE MLOAD PUSH8 0x6442694230474944 MLOAD MSIZE MLOAD TIMESTAMP NUMBER PUSH9 0x774549485159676442 PUSH10 0x4130474541516F634243 TIMESTAMP ADDRESS SELFBALANCE 0x49 0x48 MLOAD MSIZE PUSH8 0x4E426841454B4841 MLOAD PUSH8 0x6442694230414141 COINBASE COINBASE COINBASE COINBASE COINBASE COINBASE COINBASE COINBASE COINBASE COINBASE COINBASE COINBASE COINBASE COINBASE COINBASE COINBASE COINBASE COINBASE COINBASE COINBASE COINBASE COINBASE COINBASE COINBASE COINBASE COINBASE COINBASE COINBASE COINBASE COINBASE COINBASE COINBASE COINBASE COINBASE COINBASE COINBASE COINBASE COINBASE COINBASE COINBASE COINBASE COINBASE COINBASE COINBASE COINBASE COINBASE COINBASE COINBASE COINBASE COINBASE COINBASE COINBASE COINBASE PUSH6 0x76562F486272 0x2F PUSH14 0x5432694136594141414141535556 0x4F MSTORE 0x4B CALLDATALOAD NUMBER MSIZE 0x49 0x49 RETURNDATASIZE "},"methodIdentifiers":{"allowance(address,address)":"dd62ed3e","approve(address,uint256)":"095ea7b3","balanceOf(address)":"70a08231","decimals()":"313ce567","decreaseAllowance(address,uint256)":"a457c2d7","icon()":"c557b985","increaseAllowance(address,uint256)":"39509351","name()":"06fdde03","symbol()":"95d89b41","totalSupply()":"18160ddd","transfer(address,uint256)":"a9059cbb","transferFrom(address,address,uint256)":"23b872dd"}}}}}