{
  "_format": "hh-sol-artifact-1",
  "contractName": "Baniya",
  "sourceName": "contracts/Baniya.sol",
  "abi": [
    {
      "inputs": [
        {
          "internalType": "string",
          "name": "iconData",
          "type": "string"
        }
      ],
      "stateMutability": "nonpayable",
      "type": "constructor"
    },
    {
      "anonymous": false,
      "inputs": [
        {
          "indexed": true,
          "internalType": "address",
          "name": "owner",
          "type": "address"
        },
        {
          "indexed": true,
          "internalType": "address",
          "name": "spender",
          "type": "address"
        },
        {
          "indexed": false,
          "internalType": "uint256",
          "name": "value",
          "type": "uint256"
        }
      ],
      "name": "Approval",
      "type": "event"
    },
    {
      "anonymous": false,
      "inputs": [
        {
          "indexed": true,
          "internalType": "address",
          "name": "from",
          "type": "address"
        },
        {
          "indexed": true,
          "internalType": "address",
          "name": "to",
          "type": "address"
        },
        {
          "indexed": false,
          "internalType": "uint256",
          "name": "value",
          "type": "uint256"
        }
      ],
      "name": "Transfer",
      "type": "event"
    },
    {
      "inputs": [
        {
          "internalType": "address",
          "name": "owner",
          "type": "address"
        },
        {
          "internalType": "address",
          "name": "spender",
          "type": "address"
        }
      ],
      "name": "allowance",
      "outputs": [
        {
          "internalType": "uint256",
          "name": "",
          "type": "uint256"
        }
      ],
      "stateMutability": "view",
      "type": "function"
    },
    {
      "inputs": [
        {
          "internalType": "address",
          "name": "spender",
          "type": "address"
        },
        {
          "internalType": "uint256",
          "name": "amount",
          "type": "uint256"
        }
      ],
      "name": "approve",
      "outputs": [
        {
          "internalType": "bool",
          "name": "",
          "type": "bool"
        }
      ],
      "stateMutability": "nonpayable",
      "type": "function"
    },
    {
      "inputs": [
        {
          "internalType": "address",
          "name": "account",
          "type": "address"
        }
      ],
      "name": "balanceOf",
      "outputs": [
        {
          "internalType": "uint256",
          "name": "",
          "type": "uint256"
        }
      ],
      "stateMutability": "view",
      "type": "function"
    },
    {
      "inputs": [],
      "name": "decimals",
      "outputs": [
        {
          "internalType": "uint8",
          "name": "",
          "type": "uint8"
        }
      ],
      "stateMutability": "view",
      "type": "function"
    },
    {
      "inputs": [
        {
          "internalType": "address",
          "name": "spender",
          "type": "address"
        },
        {
          "internalType": "uint256",
          "name": "subtractedValue",
          "type": "uint256"
        }
      ],
      "name": "decreaseAllowance",
      "outputs": [
        {
          "internalType": "bool",
          "name": "",
          "type": "bool"
        }
      ],
      "stateMutability": "nonpayable",
      "type": "function"
    },
    {
      "inputs": [],
      "name": "icon",
      "outputs": [
        {
          "internalType": "bytes32",
          "name": "",
          "type": "bytes32"
        }
      ],
      "stateMutability": "view",
      "type": "function"
    },
    {
      "inputs": [
        {
          "internalType": "address",
          "name": "spender",
          "type": "address"
        },
        {
          "internalType": "uint256",
          "name": "addedValue",
          "type": "uint256"
        }
      ],
      "name": "increaseAllowance",
      "outputs": [
        {
          "internalType": "bool",
          "name": "",
          "type": "bool"
        }
      ],
      "stateMutability": "nonpayable",
      "type": "function"
    },
    {
      "inputs": [],
      "name": "name",
      "outputs": [
        {
          "internalType": "string",
          "name": "",
          "type": "string"
        }
      ],
      "stateMutability": "view",
      "type": "function"
    },
    {
      "inputs": [],
      "name": "symbol",
      "outputs": [
        {
          "internalType": "string",
          "name": "",
          "type": "string"
        }
      ],
      "stateMutability": "view",
      "type": "function"
    },
    {
      "inputs": [],
      "name": "totalSupply",
      "outputs": [
        {
          "internalType": "uint256",
          "name": "",
          "type": "uint256"
        }
      ],
      "stateMutability": "view",
      "type": "function"
    },
    {
      "inputs": [
        {
          "internalType": "address",
          "name": "to",
          "type": "address"
        },
        {
          "internalType": "uint256",
          "name": "amount",
          "type": "uint256"
        }
      ],
      "name": "transfer",
      "outputs": [
        {
          "internalType": "bool",
          "name": "",
          "type": "bool"
        }
      ],
      "stateMutability": "nonpayable",
      "type": "function"
    },
    {
      "inputs": [
        {
          "internalType": "address",
          "name": "from",
          "type": "address"
        },
        {
          "internalType": "address",
          "name": "to",
          "type": "address"
        },
        {
          "internalType": "uint256",
          "name": "amount",
          "type": "uint256"
        }
      ],
      "name": "transferFrom",
      "outputs": [
        {
          "internalType": "bool",
          "name": "",
          "type": "bool"
        }
      ],
      "stateMutability": "nonpayable",
      "type": "function"
    }
  ],
  "bytecode": "0x60806040523480156200001157600080fd5b5060405162001c8538038062001c858339818101604052810190620000379190620003d9565b6040518060400160405280600681526020017f42414e49594100000000000000000000000000000000000000000000000000008152506040518060400160405280600381526020017f42414e00000000000000000000000000000000000000000000000000000000008152508160039080519060200190620000bb929190620002b7565b508060049080519060200190620000d4929190620002b7565b5050506200011633620000ec6200013660201b60201c565b600a620000fa9190620005bd565b620f42406200010a9190620006fa565b6200013f60201b60201c565b80600590805190602001906200012e929190620002b7565b5050620008e8565b60006012905090565b600073ffffffffffffffffffffffffffffffffffffffff168273ffffffffffffffffffffffffffffffffffffffff161415620001b2576040517f08c379a0000000000000000000000000000000000000000000000000000000008152600401620001a99062000456565b60405180910390fd5b620001c660008383620002ad60201b60201c565b8060026000828254620001da919062000505565b92505081905550806000808473ffffffffffffffffffffffffffffffffffffffff1673ffffffffffffffffffffffffffffffffffffffff168152602001908152602001600020600082825401925050819055508173ffffffffffffffffffffffffffffffffffffffff16600073ffffffffffffffffffffffffffffffffffffffff167fddf252ad1be2c89b69c2b068fc378daa952ba7f163c4a11628f55a4df523b3ef836040516200028d919062000478565b60405180910390a3620002a960008383620002b260201b60201c565b5050565b505050565b505050565b828054620002c590620007a8565b90600052602060002090601f016020900481019282620002e9576000855562000335565b82601f106200030457805160ff191683800117855562000335565b8280016001018555821562000335579182015b828111156200033457825182559160200191906001019062000317565b5b50905062000344919062000348565b5090565b5b808211156200036357600081600090555060010162000349565b5090565b60006200037e6200037884620004be565b62000495565b9050828152602081018484840111156200039757600080fd5b620003a484828562000772565b509392505050565b600082601f830112620003be57600080fd5b8151620003d084826020860162000367565b91505092915050565b600060208284031215620003ec57600080fd5b600082015167ffffffffffffffff8111156200040757600080fd5b6200041584828501620003ac565b91505092915050565b60006200042d601f83620004f4565b91506200043a82620008bf565b602082019050919050565b62000450816200075b565b82525050565b6000602082019050818103600083015262000471816200041e565b9050919050565b60006020820190506200048f600083018462000445565b92915050565b6000620004a1620004b4565b9050620004af8282620007de565b919050565b6000604051905090565b600067ffffffffffffffff821115620004dc57620004db62000872565b5b620004e782620008a1565b9050602081019050919050565b600082825260208201905092915050565b600062000512826200075b565b91506200051f836200075b565b9250827fffffffffffffffffffffffffffffffffffffffffffffffffffffffffffffffff0382111562000557576200055662000814565b5b828201905092915050565b6000808291508390505b6001851115620005b4578086048111156200058c576200058b62000814565b5b60018516156200059c5780820291505b8081029050620005ac85620008b2565b94506200056c565b94509492505050565b6000620005ca826200075b565b9150620005d78362000765565b9250620006067fffffffffffffffffffffffffffffffffffffffffffffffffffffffffffffffff84846200060e565b905092915050565b600082620006205760019050620006f3565b81620006305760009050620006f3565b816001811462000649576002811462000654576200068a565b6001915050620006f3565b60ff84111562000669576200066862000814565b5b8360020a91508482111562000683576200068262000814565b5b50620006f3565b5060208310610133831016604e8410600b8410161715620006c45782820a905083811115620006be57620006bd62000814565b5b620006f3565b620006d3848484600162000562565b92509050818404811115620006ed57620006ec62000814565b5b81810290505b9392505050565b600062000707826200075b565b915062000714836200075b565b9250817fffffffffffffffffffffffffffffffffffffffffffffffffffffffffffffffff048311821515161562000750576200074f62000814565b5b828202905092915050565b6000819050919050565b600060ff82169050919050565b60005b838110156200079257808201518184015260208101905062000775565b83811115620007a2576000848401525b50505050565b60006002820490506001821680620007c157607f821691505b60208210811415620007d857620007d762000843565b5b50919050565b620007e982620008a1565b810181811067ffffffffffffffff821117156200080b576200080a62000872565b5b80604052505050565b7f4e487b7100000000000000000000000000000000000000000000000000000000600052601160045260246000fd5b7f4e487b7100000000000000000000000000000000000000000000000000000000600052602260045260246000fd5b7f4e487b7100000000000000000000000000000000000000000000000000000000600052604160045260246000fd5b6000601f19601f8301169050919050565b60008160011c9050919050565b7f45524332303a206d696e7420746f20746865207a65726f206164647265737300600082015250565b61138d80620008f86000396000f3fe608060405234801561001057600080fd5b50600436106100b45760003560e01c806370a082311161007157806370a08231146101a357806395d89b41146101d3578063a457c2d7146101f1578063a9059cbb14610221578063c557b98514610251578063dd62ed3e1461026f576100b4565b806306fdde03146100b9578063095ea7b3146100d757806318160ddd1461010757806323b872dd14610125578063313ce567146101555780633950935114610173575b600080fd5b6100c161029f565b6040516100ce9190610e29565b60405180910390f35b6100f160048036038101906100ec9190610bb7565b610331565b6040516100fe9190610df3565b60405180910390f35b61010f610354565b60405161011c9190610f2b565b60405180910390f35b61013f600480360381019061013a9190610b68565b61035e565b60405161014c9190610df3565b60405180910390f35b61015d61038d565b60405161016a9190610f46565b60405180910390f35b61018d60048036038101906101889190610bb7565b610396565b60405161019a9190610df3565b60405180910390f35b6101bd60048036038101906101b89190610b03565b6103cd565b6040516101ca9190610f2b565b60405180910390f35b6101db6103df565b6040516101e89190610e29565b60405180910390f35b61020b60048036038101906102069190610bb7565b610471565b6040516102189190610df3565b60405180910390f35b61023b60048036038101906102369190610bb7565b6104e8565b6040516102489190610df3565b60405180910390f35b61025961050b565b6040516102669190610e0e565b60405180910390f35b61028960048036038101906102849190610b2c565b610529565b6040516102969190610f2b565b60405180910390f35b6060600380546102ae90611085565b80601f01602080910402602001604051908101604052809291908181526020018280546102da90611085565b80156103275780601f106102fc57610100808354040283529160200191610327565b820191906000526020600020905b81548152906001019060200180831161030a57829003601f168201915b5050505050905090565b60008061033c6105b0565b90506103498185856105b8565b600191505092915050565b6000600254905090565b6000806103696105b0565b9050610376858285610783565b61038185858561080f565b60019150509392505050565b60006012905090565b6000806103a16105b0565b90506103c28185856103b38589610529565b6103bd9190610f9d565b6105b8565b600191505092915050565b60006103d882610a87565b9050919050565b6060600480546103ee90611085565b80601f016020809104026020016040519081016040528092919081815260200182805461041a90611085565b80156104675780601f1061043c57610100808354040283529160200191610467565b820191906000526020600020905b81548152906001019060200180831161044a57829003601f168201915b5050505050905090565b60008061047c6105b0565b9050600061048a8286610529565b9050838110156104cf576040517f08c379a00000000000000000000000000000000000000000000000000000000081526004016104c690610f0b565b60405180910390fd5b6104dc82868684036105b8565b60019250505092915050565b6000806104f36105b0565b905061050081858561080f565b600191505092915050565b6000600560405161051c9190610ddc565b6040518091039020905090565b6000600160008473ffffffffffffffffffffffffffffffffffffffff1673ffffffffffffffffffffffffffffffffffffffff16815260200190815260200160002060008373ffffffffffffffffffffffffffffffffffffffff1673ffffffffffffffffffffffffffffffffffffffff16815260200190815260200160002054905092915050565b600033905090565b600073ffffffffffffffffffffffffffffffffffffffff168373ffffffffffffffffffffffffffffffffffffffff161415610628576040517f08c379a000000000000000000000000000000000000000000000000000000000815260040161061f90610eeb565b60405180910390fd5b600073ffffffffffffffffffffffffffffffffffffffff168273ffffffffffffffffffffffffffffffffffffffff161415610698576040517f08c379a000000000000000000000000000000000000000000000000000000000815260040161068f90610e6b565b60405180910390fd5b80600160008573ffffffffffffffffffffffffffffffffffffffff1673ffffffffffffffffffffffffffffffffffffffff16815260200190815260200160002060008473ffffffffffffffffffffffffffffffffffffffff1673ffffffffffffffffffffffffffffffffffffffff168152602001908152602001600020819055508173ffffffffffffffffffffffffffffffffffffffff168373ffffffffffffffffffffffffffffffffffffffff167f8c5be1e5ebec7d5bd14f71427d1e84f3dd0314c0f7b2291e5b200ac8c7c3b925836040516107769190610f2b565b60405180910390a3505050565b600061078f8484610529565b90507fffffffffffffffffffffffffffffffffffffffffffffffffffffffffffffffff811461080957818110156107fb576040517f08c379a00000000000000000000000000000000000000000000000000000000081526004016107f290610e8b565b60405180910390fd5b61080884848484036105b8565b5b50505050565b600073ffffffffffffffffffffffffffffffffffffffff168373ffffffffffffffffffffffffffffffffffffffff16141561087f576040517f08c379a000000000000000000000000000000000000000000000000000000000815260040161087690610ecb565b60405180910390fd5b600073ffffffffffffffffffffffffffffffffffffffff168273ffffffffffffffffffffffffffffffffffffffff1614156108ef576040517f08c379a00000000000000000000000000000000000000000000000000000000081526004016108e690610e4b565b60405180910390fd5b6108fa838383610acf565b60008060008573ffffffffffffffffffffffffffffffffffffffff1673ffffffffffffffffffffffffffffffffffffffff16815260200190815260200160002054905081811015610980576040517f08c379a000000000000000000000000000000000000000000000000000000000815260040161097790610eab565b60405180910390fd5b8181036000808673ffffffffffffffffffffffffffffffffffffffff1673ffffffffffffffffffffffffffffffffffffffff16815260200190815260200160002081905550816000808573ffffffffffffffffffffffffffffffffffffffff1673ffffffffffffffffffffffffffffffffffffffff168152602001908152602001600020600082825401925050819055508273ffffffffffffffffffffffffffffffffffffffff168473ffffffffffffffffffffffffffffffffffffffff167fddf252ad1be2c89b69c2b068fc378daa952ba7f163c4a11628f55a4df523b3ef84604051610a6e9190610f2b565b60405180910390a3610a81848484610ad4565b50505050565b60008060008373ffffffffffffffffffffffffffffffffffffffff1673ffffffffffffffffffffffffffffffffffffffff168152602001908152602001600020549050919050565b505050565b505050565b600081359050610ae881611329565b92915050565b600081359050610afd81611340565b92915050565b600060208284031215610b1557600080fd5b6000610b2384828501610ad9565b91505092915050565b60008060408385031215610b3f57600080fd5b6000610b4d85828601610ad9565b9250506020610b5e85828601610ad9565b9150509250929050565b600080600060608486031215610b7d57600080fd5b6000610b8b86828701610ad9565b9350506020610b9c86828701610ad9565b9250506040610bad86828701610aee565b9150509250925092565b60008060408385031215610bca57600080fd5b6000610bd885828601610ad9565b9250506020610be985828601610aee565b9150509250929050565b610bfc81611005565b82525050565b610c0b81611011565b82525050565b60008154610c1e81611085565b610c288186610f81565b94506001821660008114610c435760018114610c5457610c87565b60ff19831686528186019350610c87565b610c5d85610f61565b60005b83811015610c7f57815481890152600182019150602081019050610c60565b838801955050505b50505092915050565b6000610c9b82610f76565b610ca58185610f8c565b9350610cb5818560208601611052565b610cbe81611115565b840191505092915050565b6000610cd6602383610f8c565b9150610ce182611126565b604082019050919050565b6000610cf9602283610f8c565b9150610d0482611175565b604082019050919050565b6000610d1c601d83610f8c565b9150610d27826111c4565b602082019050919050565b6000610d3f602683610f8c565b9150610d4a826111ed565b604082019050919050565b6000610d62602583610f8c565b9150610d6d8261123c565b604082019050919050565b6000610d85602483610f8c565b9150610d908261128b565b604082019050919050565b6000610da8602583610f8c565b9150610db3826112da565b604082019050919050565b610dc78161103b565b82525050565b610dd681611045565b82525050565b6000610de88284610c11565b915081905092915050565b6000602082019050610e086000830184610bf3565b92915050565b6000602082019050610e236000830184610c02565b92915050565b60006020820190508181036000830152610e438184610c90565b905092915050565b60006020820190508181036000830152610e6481610cc9565b9050919050565b60006020820190508181036000830152610e8481610cec565b9050919050565b60006020820190508181036000830152610ea481610d0f565b9050919050565b60006020820190508181036000830152610ec481610d32565b9050919050565b60006020820190508181036000830152610ee481610d55565b9050919050565b60006020820190508181036000830152610f0481610d78565b9050919050565b60006020820190508181036000830152610f2481610d9b565b9050919050565b6000602082019050610f406000830184610dbe565b92915050565b6000602082019050610f5b6000830184610dcd565b92915050565b60008190508160005260206000209050919050565b600081519050919050565b600081905092915050565b600082825260208201905092915050565b6000610fa88261103b565b9150610fb38361103b565b9250827fffffffffffffffffffffffffffffffffffffffffffffffffffffffffffffffff03821115610fe857610fe76110b7565b5b828201905092915050565b6000610ffe8261101b565b9050919050565b60008115159050919050565b6000819050919050565b600073ffffffffffffffffffffffffffffffffffffffff82169050919050565b6000819050919050565b600060ff82169050919050565b60005b83811015611070578082015181840152602081019050611055565b8381111561107f576000848401525b50505050565b6000600282049050600182168061109d57607f821691505b602082108114156110b1576110b06110e6565b5b50919050565b7f4e487b7100000000000000000000000000000000000000000000000000000000600052601160045260246000fd5b7f4e487b7100000000000000000000000000000000000000000000000000000000600052602260045260246000fd5b6000601f19601f8301169050919050565b7f45524332303a207472616e7366657220746f20746865207a65726f206164647260008201527f6573730000000000000000000000000000000000000000000000000000000000602082015250565b7f45524332303a20617070726f766520746f20746865207a65726f20616464726560008201527f7373000000000000000000000000000000000000000000000000000000000000602082015250565b7f45524332303a20696e73756666696369656e7420616c6c6f77616e6365000000600082015250565b7f45524332303a207472616e7366657220616d6f756e742065786365656473206260008201527f616c616e63650000000000000000000000000000000000000000000000000000602082015250565b7f45524332303a207472616e736665722066726f6d20746865207a65726f20616460008201527f6472657373000000000000000000000000000000000000000000000000000000602082015250565b7f45524332303a20617070726f76652066726f6d20746865207a65726f2061646460008201527f7265737300000000000000000000000000000000000000000000000000000000602082015250565b7f45524332303a2064656372656173656420616c6c6f77616e63652062656c6f7760008201527f207a65726f000000000000000000000000000000000000000000000000000000602082015250565b61133281610ff3565b811461133d57600080fd5b50565b6113498161103b565b811461135457600080fd5b5056fea26469706673582212200c8f7cc3ec323a3a73ac98b2267d7b2882c7944ebcd6bc05712442fbc5c0d08b64736f6c63430008010033",
  "linkReferences": {},
  "deployedLinkReferences": {}
}