{
  "_format": "hh-sol-artifact-1",
  "contractName": "Baniya",
  "sourceName": "contracts/Baniya.sol",
  "abi": [
    {
      "inputs": [
        {
          "internalType": "string",
          "name": "iconData",
          "type": "string"
        }
      ],
      "stateMutability": "nonpayable",
      "type": "constructor"
    },
    {
      "anonymous": false,
      "inputs": [
        {
          "indexed": true,
          "internalType": "address",
          "name": "owner",
          "type": "address"
        },
        {
          "indexed": true,
          "internalType": "address",
          "name": "spender",
          "type": "address"
        },
        {
          "indexed": false,
          "internalType": "uint256",
          "name": "value",
          "type": "uint256"
        }
      ],
      "name": "Approval",
      "type": "event"
    },
    {
      "anonymous": false,
      "inputs": [
        {
          "indexed": true,
          "internalType": "address",
          "name": "from",
          "type": "address"
        },
        {
          "indexed": true,
          "internalType": "address",
          "name": "to",
          "type": "address"
        },
        {
          "indexed": false,
          "internalType": "uint256",
          "name": "value",
          "type": "uint256"
        }
      ],
      "name": "Transfer",
      "type": "event"
    },
    {
      "inputs": [
        {
          "internalType": "address",
          "name": "owner",
          "type": "address"
        },
        {
          "internalType": "address",
          "name": "spender",
          "type": "address"
        }
      ],
      "name": "allowance",
      "outputs": [
        {
          "internalType": "uint256",
          "name": "",
          "type": "uint256"
        }
      ],
      "stateMutability": "view",
      "type": "function"
    },
    {
      "inputs": [
        {
          "internalType": "address",
          "name": "spender",
          "type": "address"
        },
        {
          "internalType": "uint256",
          "name": "amount",
          "type": "uint256"
        }
      ],
      "name": "approve",
      "outputs": [
        {
          "internalType": "bool",
          "name": "",
          "type": "bool"
        }
      ],
      "stateMutability": "nonpayable",
      "type": "function"
    },
    {
      "inputs": [
        {
          "internalType": "address",
          "name": "account",
          "type": "address"
        }
      ],
      "name": "balanceOf",
      "outputs": [
        {
          "internalType": "uint256",
          "name": "",
          "type": "uint256"
        }
      ],
      "stateMutability": "view",
      "type": "function"
    },
    {
      "inputs": [],
      "name": "decimals",
      "outputs": [
        {
          "internalType": "uint8",
          "name": "",
          "type": "uint8"
        }
      ],
      "stateMutability": "view",
      "type": "function"
    },
    {
      "inputs": [
        {
          "internalType": "address",
          "name": "spender",
          "type": "address"
        },
        {
          "internalType": "uint256",
          "name": "subtractedValue",
          "type": "uint256"
        }
      ],
      "name": "decreaseAllowance",
      "outputs": [
        {
          "internalType": "bool",
          "name": "",
          "type": "bool"
        }
      ],
      "stateMutability": "nonpayable",
      "type": "function"
    },
    {
      "inputs": [],
      "name": "icon",
      "outputs": [
        {
          "internalType": "bytes32",
          "name": "",
          "type": "bytes32"
        }
      ],
      "stateMutability": "view",
      "type": "function"
    },
    {
      "inputs": [
        {
          "internalType": "address",
          "name": "spender",
          "type": "address"
        },
        {
          "internalType": "uint256",
          "name": "addedValue",
          "type": "uint256"
        }
      ],
      "name": "increaseAllowance",
      "outputs": [
        {
          "internalType": "bool",
          "name": "",
          "type": "bool"
        }
      ],
      "stateMutability": "nonpayable",
      "type": "function"
    },
    {
      "inputs": [],
      "name": "name",
      "outputs": [
        {
          "internalType": "string",
          "name": "",
          "type": "string"
        }
      ],
      "stateMutability": "view",
      "type": "function"
    },
    {
      "inputs": [],
      "name": "symbol",
      "outputs": [
        {
          "internalType": "string",
          "name": "",
          "type": "string"
        }
      ],
      "stateMutability": "view",
      "type": "function"
    },
    {
      "inputs": [],
      "name": "totalSupply",
      "outputs": [
        {
          "internalType": "uint256",
          "name": "",
          "type": "uint256"
        }
      ],
      "stateMutability": "view",
      "type": "function"
    },
    {
      "inputs": [
        {
          "internalType": "address",
          "name": "to",
          "type": "address"
        },
        {
          "internalType": "uint256",
          "name": "amount",
          "type": "uint256"
        }
      ],
      "name": "transfer",
      "outputs": [
        {
          "internalType": "bool",
          "name": "",
          "type": "bool"
        }
      ],
      "stateMutability": "nonpayable",
      "type": "function"
    },
    {
      "inputs": [
        {
          "internalType": "address",
          "name": "from",
          "type": "address"
        },
        {
          "internalType": "address",
          "name": "to",
          "type": "address"
        },
        {
          "internalType": "uint256",
          "name": "amount",
          "type": "uint256"
        }
      ],
      "name": "transferFrom",
      "outputs": [
        {
          "internalType": "bool",
          "name": "",
          "type": "bool"
        }
      ],
      "stateMutability": "nonpayable",
      "type": "function"
    }
  ],
  "bytecode": "0x60806040523480156200001157600080fd5b5060405162002b1c38038062002b1c8339818101604052810190620000379190620003f5565b6040518060400160405280600681526020017f42414e49594100000000000000000000000000000000000000000000000000008152506040518060400160405280600381526020017f42414e00000000000000000000000000000000000000000000000000000000008152508160039080519060200190620000bb929190620002d3565b508060049080519060200190620000d4929190620002d3565b5050506200011633620000ec6200015260201b60201c565b600a620000fa9190620005fc565b620f42406200010a919062000739565b6200015b60201b60201c565b60405180610f400160405280610f1c815260200162001c00610f1c9139600590805190602001906200014a929190620002d3565b5050620008b7565b60006012905090565b600073ffffffffffffffffffffffffffffffffffffffff168273ffffffffffffffffffffffffffffffffffffffff161415620001ce576040517f08c379a0000000000000000000000000000000000000000000000000000000008152600401620001c5906200048d565b60405180910390fd5b620001e260008383620002c960201b60201c565b8060026000828254620001f6919062000544565b92505081905550806000808473ffffffffffffffffffffffffffffffffffffffff1673ffffffffffffffffffffffffffffffffffffffff168152602001908152602001600020600082825401925050819055508173ffffffffffffffffffffffffffffffffffffffff16600073ffffffffffffffffffffffffffffffffffffffff167fddf252ad1be2c89b69c2b068fc378daa952ba7f163c4a11628f55a4df523b3ef83604051620002a99190620004af565b60405180910390a3620002c560008383620002ce60201b60201c565b5050565b505050565b505050565b828054620002e190620007e7565b90600052602060002090601f01602090048101928262000305576000855562000351565b82601f106200032057805160ff191683800117855562000351565b8280016001018555821562000351579182015b828111156200035057825182559160200191906001019062000333565b5b50905062000360919062000364565b5090565b5b808211156200037f57600081600090555060010162000365565b5090565b60006200039a620003948462000500565b620004cc565b905082815260208101848484011115620003b357600080fd5b620003c0848285620007b1565b509392505050565b600082601f830112620003da57600080fd5b8151620003ec84826020860162000383565b91505092915050565b6000602082840312156200040857600080fd5b600082015167ffffffffffffffff8111156200042357600080fd5b6200043184828501620003c8565b91505092915050565b600062000449601f8362000533565b91507f45524332303a206d696e7420746f20746865207a65726f2061646472657373006000830152602082019050919050565b62000487816200079a565b82525050565b60006020820190508181036000830152620004a8816200043a565b9050919050565b6000602082019050620004c660008301846200047c565b92915050565b6000604051905081810181811067ffffffffffffffff82111715620004f657620004f56200087b565b5b8060405250919050565b600067ffffffffffffffff8211156200051e576200051d6200087b565b5b601f19601f8301169050602081019050919050565b600082825260208201905092915050565b600062000551826200079a565b91506200055e836200079a565b9250827fffffffffffffffffffffffffffffffffffffffffffffffffffffffffffffffff038211156200059657620005956200081d565b5b828201905092915050565b6000808291508390505b6001851115620005f357808604811115620005cb57620005ca6200081d565b5b6001851615620005db5780820291505b8081029050620005eb85620008aa565b9450620005ab565b94509492505050565b600062000609826200079a565b91506200061683620007a4565b9250620006457fffffffffffffffffffffffffffffffffffffffffffffffffffffffffffffffff84846200064d565b905092915050565b6000826200065f576001905062000732565b816200066f576000905062000732565b81600181146200068857600281146200069357620006c9565b600191505062000732565b60ff841115620006a857620006a76200081d565b5b8360020a915084821115620006c257620006c16200081d565b5b5062000732565b5060208310610133831016604e8410600b8410161715620007035782820a905083811115620006fd57620006fc6200081d565b5b62000732565b620007128484846001620005a1565b925090508184048111156200072c576200072b6200081d565b5b81810290505b9392505050565b600062000746826200079a565b915062000753836200079a565b9250817fffffffffffffffffffffffffffffffffffffffffffffffffffffffffffffffff04831182151516156200078f576200078e6200081d565b5b828202905092915050565b6000819050919050565b600060ff82169050919050565b60005b83811015620007d1578082015181840152602081019050620007b4565b83811115620007e1576000848401525b50505050565b600060028204905060018216806200080057607f821691505b602082108114156200081757620008166200084c565b5b50919050565b7f4e487b7100000000000000000000000000000000000000000000000000000000600052601160045260246000fd5b7f4e487b7100000000000000000000000000000000000000000000000000000000600052602260045260246000fd5b7f4e487b7100000000000000000000000000000000000000000000000000000000600052604160045260246000fd5b60008160011c9050919050565b61133980620008c76000396000f3fe608060405234801561001057600080fd5b50600436106100b45760003560e01c806370a082311161007157806370a08231146101a357806395d89b41146101d3578063a457c2d7146101f1578063a9059cbb14610221578063c557b98514610251578063dd62ed3e1461026f576100b4565b806306fdde03146100b9578063095ea7b3146100d757806318160ddd1461010757806323b872dd14610125578063313ce567146101555780633950935114610173575b600080fd5b6100c161029f565b6040516100ce9190610fd8565b60405180910390f35b6100f160048036038101906100ec9190610bb7565b610331565b6040516100fe9190610fa2565b60405180910390f35b61010f610354565b60405161011c91906110da565b60405180910390f35b61013f600480360381019061013a9190610b68565b61035e565b60405161014c9190610fa2565b60405180910390f35b61015d61038d565b60405161016a91906110f5565b60405180910390f35b61018d60048036038101906101889190610bb7565b610396565b60405161019a9190610fa2565b60405180910390f35b6101bd60048036038101906101b89190610b03565b6103cd565b6040516101ca91906110da565b60405180910390f35b6101db6103df565b6040516101e89190610fd8565b60405180910390f35b61020b60048036038101906102069190610bb7565b610471565b6040516102189190610fa2565b60405180910390f35b61023b60048036038101906102369190610bb7565b6104e8565b6040516102489190610fa2565b60405180910390f35b61025961050b565b6040516102669190610fbd565b60405180910390f35b61028960048036038101906102849190610b2c565b610529565b60405161029691906110da565b60405180910390f35b6060600380546102ae90611234565b80601f01602080910402602001604051908101604052809291908181526020018280546102da90611234565b80156103275780601f106102fc57610100808354040283529160200191610327565b820191906000526020600020905b81548152906001019060200180831161030a57829003601f168201915b5050505050905090565b60008061033c6105b0565b90506103498185856105b8565b600191505092915050565b6000600254905090565b6000806103696105b0565b9050610376858285610783565b61038185858561080f565b60019150509392505050565b60006012905090565b6000806103a16105b0565b90506103c28185856103b38589610529565b6103bd919061114c565b6105b8565b600191505092915050565b60006103d882610a87565b9050919050565b6060600480546103ee90611234565b80601f016020809104026020016040519081016040528092919081815260200182805461041a90611234565b80156104675780601f1061043c57610100808354040283529160200191610467565b820191906000526020600020905b81548152906001019060200180831161044a57829003601f168201915b5050505050905090565b60008061047c6105b0565b9050600061048a8286610529565b9050838110156104cf576040517f08c379a00000000000000000000000000000000000000000000000000000000081526004016104c6906110ba565b60405180910390fd5b6104dc82868684036105b8565b60019250505092915050565b6000806104f36105b0565b905061050081858561080f565b600191505092915050565b6000600560405161051c9190610f8b565b6040518091039020905090565b6000600160008473ffffffffffffffffffffffffffffffffffffffff1673ffffffffffffffffffffffffffffffffffffffff16815260200190815260200160002060008373ffffffffffffffffffffffffffffffffffffffff1673ffffffffffffffffffffffffffffffffffffffff16815260200190815260200160002054905092915050565b600033905090565b600073ffffffffffffffffffffffffffffffffffffffff168373ffffffffffffffffffffffffffffffffffffffff161415610628576040517f08c379a000000000000000000000000000000000000000000000000000000000815260040161061f9061109a565b60405180910390fd5b600073ffffffffffffffffffffffffffffffffffffffff168273ffffffffffffffffffffffffffffffffffffffff161415610698576040517f08c379a000000000000000000000000000000000000000000000000000000000815260040161068f9061101a565b60405180910390fd5b80600160008573ffffffffffffffffffffffffffffffffffffffff1673ffffffffffffffffffffffffffffffffffffffff16815260200190815260200160002060008473ffffffffffffffffffffffffffffffffffffffff1673ffffffffffffffffffffffffffffffffffffffff168152602001908152602001600020819055508173ffffffffffffffffffffffffffffffffffffffff168373ffffffffffffffffffffffffffffffffffffffff167f8c5be1e5ebec7d5bd14f71427d1e84f3dd0314c0f7b2291e5b200ac8c7c3b9258360405161077691906110da565b60405180910390a3505050565b600061078f8484610529565b90507fffffffffffffffffffffffffffffffffffffffffffffffffffffffffffffffff811461080957818110156107fb576040517f08c379a00000000000000000000000000000000000000000000000000000000081526004016107f29061103a565b60405180910390fd5b61080884848484036105b8565b5b50505050565b600073ffffffffffffffffffffffffffffffffffffffff168373ffffffffffffffffffffffffffffffffffffffff16141561087f576040517f08c379a00000000000000000000000000000000000000000000000000000000081526004016108769061107a565b60405180910390fd5b600073ffffffffffffffffffffffffffffffffffffffff168273ffffffffffffffffffffffffffffffffffffffff1614156108ef576040517f08c379a00000000000000000000000000000000000000000000000000000000081526004016108e690610ffa565b60405180910390fd5b6108fa838383610acf565b60008060008573ffffffffffffffffffffffffffffffffffffffff1673ffffffffffffffffffffffffffffffffffffffff16815260200190815260200160002054905081811015610980576040517f08c379a00000000000000000000000000000000000000000000000000000000081526004016109779061105a565b60405180910390fd5b8181036000808673ffffffffffffffffffffffffffffffffffffffff1673ffffffffffffffffffffffffffffffffffffffff16815260200190815260200160002081905550816000808573ffffffffffffffffffffffffffffffffffffffff1673ffffffffffffffffffffffffffffffffffffffff168152602001908152602001600020600082825401925050819055508273ffffffffffffffffffffffffffffffffffffffff168473ffffffffffffffffffffffffffffffffffffffff167fddf252ad1be2c89b69c2b068fc378daa952ba7f163c4a11628f55a4df523b3ef84604051610a6e91906110da565b60405180910390a3610a81848484610ad4565b50505050565b60008060008373ffffffffffffffffffffffffffffffffffffffff1673ffffffffffffffffffffffffffffffffffffffff168152602001908152602001600020549050919050565b505050565b505050565b600081359050610ae8816112d5565b92915050565b600081359050610afd816112ec565b92915050565b600060208284031215610b1557600080fd5b6000610b2384828501610ad9565b91505092915050565b60008060408385031215610b3f57600080fd5b6000610b4d85828601610ad9565b9250506020610b5e85828601610ad9565b9150509250929050565b600080600060608486031215610b7d57600080fd5b6000610b8b86828701610ad9565b9350506020610b9c86828701610ad9565b9250506040610bad86828701610aee565b9150509250925092565b60008060408385031215610bca57600080fd5b6000610bd885828601610ad9565b9250506020610be985828601610aee565b9150509250929050565b610bfc816111b4565b82525050565b610c0b816111c0565b82525050565b60008154610c1e81611234565b610c288186611130565b94506001821660008114610c435760018114610c5457610c87565b60ff19831686528186019350610c87565b610c5d85611110565b60005b83811015610c7f57815481890152600182019150602081019050610c60565b838801955050505b50505092915050565b6000610c9b82611125565b610ca5818561113b565b9350610cb5818560208601611201565b610cbe816112c4565b840191505092915050565b6000610cd660238361113b565b91507f45524332303a207472616e7366657220746f20746865207a65726f206164647260008301527f65737300000000000000000000000000000000000000000000000000000000006020830152604082019050919050565b6000610d3c60228361113b565b91507f45524332303a20617070726f766520746f20746865207a65726f20616464726560008301527f73730000000000000000000000000000000000000000000000000000000000006020830152604082019050919050565b6000610da2601d8361113b565b91507f45524332303a20696e73756666696369656e7420616c6c6f77616e63650000006000830152602082019050919050565b6000610de260268361113b565b91507f45524332303a207472616e7366657220616d6f756e742065786365656473206260008301527f616c616e636500000000000000000000000000000000000000000000000000006020830152604082019050919050565b6000610e4860258361113b565b91507f45524332303a207472616e736665722066726f6d20746865207a65726f20616460008301527f64726573730000000000000000000000000000000000000000000000000000006020830152604082019050919050565b6000610eae60248361113b565b91507f45524332303a20617070726f76652066726f6d20746865207a65726f2061646460008301527f72657373000000000000000000000000000000000000000000000000000000006020830152604082019050919050565b6000610f1460258361113b565b91507f45524332303a2064656372656173656420616c6c6f77616e63652062656c6f7760008301527f207a65726f0000000000000000000000000000000000000000000000000000006020830152604082019050919050565b610f76816111ea565b82525050565b610f85816111f4565b82525050565b6000610f978284610c11565b915081905092915050565b6000602082019050610fb76000830184610bf3565b92915050565b6000602082019050610fd26000830184610c02565b92915050565b60006020820190508181036000830152610ff28184610c90565b905092915050565b6000602082019050818103600083015261101381610cc9565b9050919050565b6000602082019050818103600083015261103381610d2f565b9050919050565b6000602082019050818103600083015261105381610d95565b9050919050565b6000602082019050818103600083015261107381610dd5565b9050919050565b6000602082019050818103600083015261109381610e3b565b9050919050565b600060208201905081810360008301526110b381610ea1565b9050919050565b600060208201905081810360008301526110d381610f07565b9050919050565b60006020820190506110ef6000830184610f6d565b92915050565b600060208201905061110a6000830184610f7c565b92915050565b60008190508160005260206000209050919050565b600081519050919050565b600081905092915050565b600082825260208201905092915050565b6000611157826111ea565b9150611162836111ea565b9250827fffffffffffffffffffffffffffffffffffffffffffffffffffffffffffffffff0382111561119757611196611266565b5b828201905092915050565b60006111ad826111ca565b9050919050565b60008115159050919050565b6000819050919050565b600073ffffffffffffffffffffffffffffffffffffffff82169050919050565b6000819050919050565b600060ff82169050919050565b60005b8381101561121f578082015181840152602081019050611204565b8381111561122e576000848401525b50505050565b6000600282049050600182168061124c57607f821691505b602082108114156112605761125f611295565b5b50919050565b7f4e487b7100000000000000000000000000000000000000000000000000000000600052601160045260246000fd5b7f4e487b7100000000000000000000000000000000000000000000000000000000600052602260045260246000fd5b6000601f19601f8301169050919050565b6112de816111a2565b81146112e957600080fd5b50565b6112f5816111ea565b811461130057600080fd5b5056fea2646970667358221220a0a80577b786adefffb380af4e6a666c4fc9a50b240f044c070180d35f3a38c964736f6c634300080000336956424f5277304b47676f414141414e535568455567414141506f4141414650434159414141426b6e4e4e50414141414358424957584d41414173544141414c457745416d7077594141414141584e535230494172733463365141414141526e51553142414143786a77763859515541414172705355524256486742376430766a4e35464873667834594b34354179475332567854546942416d5242565542535279554241515a43546d4549416f4d694a4a6a44454f54576b594241305a5546565547544f6c6232446c4e78647a6e5832382f2b2b4e487430743139647666354e393935765a496e33584c6951734a375a3537357a572b6d4e5141414141414141414141414141414141414141414141414141414141414141414141414141414141414141414141414141414141415930564d505037372b7341476c2f616b4235516b6442694230474944515951424368774549485159676442694130474541516f63424342304749485159674e426841454b484151676442694230474944515951424368774549485159676442694130474541516f63424342304749485159774e4f7464792b3830746f7a6632307332662f2b4d3330652b2f742f662f763533395050442f375636454f423046397437664c66476875535877414a6676377a39382b767264332f35664666466d784d2f36477a57582f2b533275586e6a762b66302f6f435436662f414b347639666133732b4e3952493671355666424a6c78485a31314a666245662b386e34612b42304e6d4d4f66365858352f2b6e746a762f4c442f353133662f5664413647794877364e2b527672623334702b6959544f39736c332f757676547a2f50492f32645734337a457a7262625237707239356f625866484b48394f5171635032537552555436722b50642b33492f2b70754450514f6a304a6176343254755254373748332f354f38417577425a5a2b5a63582b7a552f322f33797463544b683037644d36612b3933646f4858353638635764775171654742502f755a2f7652767a564e37336d4d304b6b6c302f6b453730576e7877696465684a3570764a583332684d684535646566616571547843707a68542b514e437037367378756378334d4378433530784a504b4259786336347867346471457a6c6b522b343850686e72554c6e66486b4f2f7467712f46435a3078354b57616750664a435a317a5a497a2f4943634a435a327a58337876692b37725147567357357762594b697430794f3635346c4e346f554d55483957464470455250666634465356306d4f567474364b4544724d737a4255643159554f683831585242556a6444677332324d4c7273414c4859347175414976644467714933717833584a43687963707469676e644869534b792b31536f514f54314a732b6935304f4536683158653371573561726748652b6252745444614a5a4f523635746e703056492b726a53615848352b75714b35414b4676576b4c662b376c746c635366344b2b384f4931716f7836546245536e744e77336e7338386d6d56684b74486e2b4b575246506f46357a73367030767733337a52327566767448626e687a614d673638304e5749584f6f764c4b4438486e3539486b4f2f70425169647330766b695833335a697576794d4b6b30446d2f335a335776762b716c5a5a4679514b457a7358632f6e61617a6c646c524966665a4947756175784368304d5365306233617179367778465a6e42746c4e62347a516d643573737576387666316a676d6435637032336d3362306f7651575945526e7139335275677358306230544f505a476b4a6e4e61727369532f794330766f724d623958316f4a516f6354374e31744a516764546c446c6558715266772b68737a6f56496845366e4b4c437450662b58717441364b784f696442724c436f4b48593654616276464f436975796950434a6e525771666458504176743252633671394e3936455832416a5368737971396e375757372b656d376e434b5335646231347063785451544f7176522b335647743739726c51696431656a356676457377685537456b766f4c4e384c722f523965757164573630616f624e3856322b30626d556b4c33692f6e4e425a726f7a6d505439574b336f4d6c74425a6e6b7a586a655a62536567737a3757336a4f5a62537567737838757637302f6258323364796b68652b4f35336f584e784354796a656138795a53392b524c5851755a6845667632393172554272704a36757346355a6548743668757461376b597376435566535a307a69344c62686e4665392f6d6d6c48382b362f614349544f34764c34374f5858706f57333375384e542b5266663952474958524f56796e7779504651695879674b3536467a704d6c364d76505433486e3366494b676365416b5966516d655237643934687a2f66756846307037746b63656145444a52596c3945314c544a7434504a582f33337753654f394850693069492f6a4f70304e47486b4c66744d5457383436794873774c62344e4e317738544f72586c47586b656f51312b5837765171536c685a3864624e7351676441724b55564466664448305650306f6f564f485566785951716547784a3349422f387566687968303763737467337739746c46435a332b5a4e524f34446c375865414c4554723979434c62765a2b6d794533527a30546f624c66456e63734f453766522b3979457a6e5a4a7a496e372f70365265346d457a766249587652696c787475433266477354324d3369746a5247643733506a773064746c6d634c50643551662f4c6e584f442b68737a304f4472733434527936672b2f75767a78616f444d44574a6a513655642b4365535455323869775766424c7446626b542b52304f6e584848374d30526538386e675a6845344e632f5135617a373733724f7878696a2f4f36465453343746757662324e4c326652336a426537784755516b2b6f2f75626e3078337467394f364e5232634b764d2b363139384f555968324165512b694d495a456e39743776696a736e6f544f57544f6348484e32467a6e67532b6275665464644d44554c6f6a436d37384c4936503868555875694d4c5650355464795573325a4368397955557a78326f554d556a31336f4d43736375394468734d52656349484f587664746b4465764e6d322b526e6e2b6a43774c64486e585063644a46794830545a7576394e306d682b394e7633523565697673306e4e6a2f514a4937486e5076636839366b4c6e6a7a4b6135542f776641344f613777352f664d45662b58462f63394c39586557355a64616a7262367839394c6e47516a64425a33634954547a394e3934346b2b6234586c4f32315642322f41765448392b33624f59687a6e4d31394e2f506b3730337666566557393970504f73657545304c6d597244484d7756633934434750334470666e78413679354849452f76757a565a4f707643647677416a644a5a7264326536636158615563795a776e653841436c306c69387239586c6b57476b716e366c3778787470684d3571354e4663745a453954786736486457467a75724d73566653365864316f624e616551795863396172794b6a653451713830466d3962446a5a68763338793544494f7a772b577569735236584862746b4333426d687378377a335767565a4b64635a347479516d64394b6c3241324e6e30586569737a2f785354415764375838584f75755657303472534f67647262344c6e665771394b5a6252364f3630466d762b56434c4369342f33336f68644e617679766630484b2f564361477a6667392b6253554948553777344a2b7468506b517a5134496e6657377639664b3647546c5865687745546b4f75774e4368347377645963426d4c72444149514f78366830745a505134526843587a756873333464625453705175697358306437784b73514f75746e524638376f624e6569627a366c637462534f6973562b64336d50564b364b7858675375494839504a74564e435a3331796f4b4a702b3059496e6656493446647674484b4d3648424962694b744f4a6f4c485836547538567a5a316c466e5a7957493352574b342f54727233567975726b576d6968737a714a2f4d3150576c6b646e576a3764494e5679485339386b6765485231624c5853574b32397a5a6545746f56636e64495a303563583955667a74635a3656373931747652413646354d525049466e5662336172726654474e45704c362b61586e6c7043727a5351524b4c7976507a547036686839413558554c4f73635a5a52632b6f33646c4e6f6976523262565351743847327a446c6665625a36633845504e394163766a44342b3763616a30522b71596c6f7372506d69764b6c4c327a4564324747546972446d2b444654716331653376576d2b45446d655252326f64505661624352334f6f7350525049514f69386f69334a3066576f2b45446f766176646c364a585259524d656a65516764467448786142354368394e3050707148304f45304f352b3233676b6454704b52764d506e356b634a485936544b58766e3338316e516f666a66504e46562b2b636e30546f384353374f31322b764849636f634e5243627a496c48306d64446773552f564d325973524f7377532b6463666c666c6566706a5149584c7253703658463477386841364a50434e356765666c7878453659787367386e41344a4f504b4e44335439654b526839415a552b4746747963524f75504a632f4b4d354a33636262344d516d63737437397437667576326d69457a686a6d7832654674725765686443704c334558656b486c5049524f58526e4673326339302f5842435a3261456e636948326a4237535243703562357a624e4276347366522b6a5549504154435a322b435877685171645039333663376b45542b454b45546a2b794a2f336554394e436d3057324d784536322b3367386f526230386874394434336f624e644d6c4c50493366434875444e736e55514f70733168373133393148597075564c4a335457492f486d6b35677a48582f7736364f6657546d68637a357a754c4d454f2f2b7a66424c7950466f662f4633516d2f545577342b76503278416163364d67774549485159676442694130474541516f63424342304749485159674e426841454b484151676442694230474944515951424368774549485159676442694130474541516f63424342304749485159674e426841454b48415167644269423041414141414141414141414141414141414141414141414141414141414141414141414141414141414141414141414141414141414141416576562f4862722f6d54326941365941414141415355564f524b35435949493d",
  "linkReferences": {},
  "deployedLinkReferences": {}
}